:020000040800F2
:10000000682B00200D0200083D200008A90D000803
:1000100029160008F908000837330008000000001E
:100020000000000000000000000000001926000889
:10003000050A00080000000001250008F12B000857
:1000400027020008270200082702000827020008EC
:1000500027020008270200082702000827020008DC
:1000600027020008270200082702000827020008CC
:1000700027020008270200082702000827020008BC
:1000800027020008270200082702000827020008AC
:10009000270200082702000827020008270200089C
:1000A000270200082702000827020008270200088C
:1000B000270200082702000827020008270200087C
:1000C000270200082702000827020008270200086C
:1000D00027020008893000082702000827020008CC
:1000E000270200082702000827020008270200084C
:1000F000270200082702000827020008270200083C
:100100002702000827020008552C000827020008D3
:10011000270200082702000827020008270200081B
:10012000270200082702000827020008270200080B
:1001300000F002F800F05AF80AA090E8000C82449F
:100140008344AAF10107DA4501D100F04FF8AFF27C
:10015000090EBAE80F0013F0010F18BFFB1A43F0A5
:100160000103184794530000B45300000A444FF0B1
:10017000000C10F8013B13F0070408BF10F8014B06
:100180001D1108BF10F8015B641E05D010F8016B4B
:10019000641E01F8016BF9D113F0080F1EBF10F8AF
:1001A000014BAD1C0C1B09D16D1E58BF01F801CBD2
:1001B000FAD505E014F8016B01F8016B6D1EF9D555
:1001C0009142D6D37047000000230024002500266A
:1001D000103A28BF78C1FBD8520728BF30C148BFAA
:1001E0000B6070471FB51FBD10B510BD00F046F87D
:1001F0001146FFF7F7FF03F03FFE00F064F803B489
:10020000FFF7F2FF03BC03F0F5FB0000094880474D
:1002100009480047FEE7FEE7FEE7FEE7FEE7FEE7E8
:10022000FEE7FEE7FEE7FEE704480549054A064B00
:1002300070470000F52B00083101000868250020F8
:10024000682B00206827002068270020704770472F
:1002500070477047704710B500F008F8006810BD8F
:1002600010B5044600F002F8046010BD0048704765
:100270000425002000487047042500207546FFF73C
:10028000F9FFAE4605006946534620F00700854653
:1002900018B020B5FFF7C8FFBDE820404FF00006BA
:1002A0004FF000074FF000084FF0000B21F007015E
:1002B000AC46ACE8C009ACE8C009ACE8C009ACE8A1
:1002C000C0098D46704710B50446AFF30080204644
:1002D000BDE81040FFF793BF70B5002116480068D5
:1002E00001F0E6FE154908601548006804F01AFCA4
:1002F00021F0004104464FF02042124B04F0E6FA90
:100300000BD211490E48006804F0A6FC04460F49C0
:1003100004F01CFE0E49086006E000210D4800684C
:1003200002F03AF80A49086000210B48006801F021
:1003300079FF0A49086070BDA00100204C0100202F
:10034000600100209999C93F0000484300803B4567
:10035000540100206C010020A40100205001002065
:1003600010B52B480068401C294908600846006801
:10037000C8284BD918E001F03FFD00F09BF9254853
:1003800001682548006804F0F9FB23490860234808
:1003900001682348006804F0F1FB21490860214806
:1003A0000068401C1F4908601E480068B0F5487F7F
:1003B000E1D31D491848006804F04EFC1649086056
:1003C00019491748006804F047FC154908601749A7
:1003D0001148006804F086FE11D315490E480068E4
:1003E00004F080FD0BD313490D48006804F07AFE39
:1003F00005D311490A48006804F074FD06D20020B4
:1004000007490860044908600649086010BD0000FB
:100410003C0100209C0100205C010020DC01002048
:10042000580100203801002000004844000080BF2F
:100430000000A0BF6666E6BE0000B0C02DE9F74F21
:100440008CB08346924600F0C7F800F033F9554867
:100450000D99006804F07AFD074653480168384654
:1004600004F08CFB05464FF07E51584604F06BFEBD
:100470000646294604F06AFD044604F053FBCDE924
:1004800008014A48006804F04DFBCDE900014848E6
:10049000006804F047FB8046DDE9002303F0BEFB63
:1004A000CDE90401584604F03DFBCDE90201DDE948
:1004B000042304F00DF9064600223E4B04F008F92F
:1004C00004463D4A3D4B03F0E7FECDE90601DDE978
:1004D000082303F025FECDE90A0103F0EFFD3249C0
:1004E000086037480D99006804F030FD08903548E1
:1004F0000168089804F042FB07464FF07E515846C9
:1005000004F021FE3946099004F020FD064604F06F
:1005100009FB04460D462548006804F003FBCDE9BD
:1005200002012948006804F0FDFACDE90001DDE987
:10053000022303F073FB06460F46584604F0F2FA16
:1005400032463B46CDE9040104F0C2F80022194BC3
:10055000CDE9060104F0BCF8174A184BCDE90801B3
:1005600003F09AFE22462B46CDE90A0103F0D8FD9E
:10057000804603F0A3FD1349086051461348006804
:1005800004F0ECFD0546124904F066FB04461148F0
:100590000168204604F0F2FA0E4908600FB0BDE889
:1005A000F08F0000D4010020E0010020CC010020E9
:1005B000C801002000806640182D4454FB210940EA
:1005C000D8010020E4010020C4010020DC0100204B
:1005D00000004843E80100202DE9FC4106236A465B
:1005E0003B21692000F0FCFB10B10120BDE8FC813B
:1005F0009DF801009DF8001040EA012000B2214959
:1006000008809DF803009DF8021040EA012000B226
:100610001C4948809DF805009DF8041040EA01201F
:1006200000B218498880B1F9000003F0EAFF0646DD
:100630000022154B03F030FE044603F03FFD134942
:1006400008601049B1F9020003F0DBFF0646002202
:100650000D4B03F021FE044603F030FD0C49086009
:100660000849B1F9040003F0CCFF06460022064B0E
:1006700003F012FE044603F021FD06490860002045
:10068000B4E70000B00100200000D040C401002009
:10069000C8010020CC01002010B50123044A7521B7
:1006A000692000F09DFB08B1012010BD0020FCE78F
:1006B000C20100202DE9FC4106236A46432169203E
:1006C00000F08EFB10B10120BDE8FC819DF8010017
:1006D0009DF8001040EA012000B2214908809DF8F1
:1006E00003009DF8021040EA012000B21C49488036
:1006F0009DF805009DF8041040EA012000B2184959
:100700008880B1F9000003F07CFF0646154A164BBD
:1007100003F0C2FD044603F0D1FC144908601049FF
:10072000B1F9020003F06DFF06460E4A0E4B03F0CE
:10073000B3FD044603F0C2FC0D4908600849B1F955
:10074000040003F05EFF0646064A074B03F0A4FDD3
:10075000044603F0B3FC074908600020B4E700003A
:10076000B8010020FCA9F1D24D623040D401002034
:10077000D8010020DC010020F8B504460D46002019
:1007800000F014FB0A2003F02BFBFFF785FF08B1F4
:100790000120F8BD29480078682801D00220F8E738
:1007A0008020009001236A466B21692000F07AFCCA
:1007B00008B10320EDE70A2003F012FB00200090AF
:1007C00001236A466B21692000F06CFC08B104200B
:1007D000DFE70120009001236A466B21692000F0C9
:1007E00061FC08B10A20D4E71820009001236A4672
:1007F0001B21692000F056FC08B10B20C9E700203E
:10080000009001236A461C21692000F04BFC08B1CE
:100810000C20BEE72946204600F03FF808B10D2025
:10082000B7E704EBD471C1F34F00294600F008F894
:1008300008B10E20ADE70020ABE70000C2010020A8
:1008400038B504460D46DDB1BC2C02DD0120009018
:1008500018E0622C02DD0220009013E02A2C02DD59
:10086000032000900EE0142C02DD0420009009E02B
:100870000A2C02DD0520009004E00620009001E033
:100880000020009001236A461A21692000F00AFC2A
:1008900008B1012038BD0020FCE7F8B504460E463B
:1008A0006EB14FF47A75B4F57A7F01DD284604E025
:1008B000042C01DA042000E0204604460CE04FF44A
:1008C000FA55B4F5FA5F01DD284604E0202C01DA80
:1008D000202000E02046044695FBF4F0401EC0B204
:1008E000009001236A461921692000F0DBFB08B162
:1008F0000120F8BD0020FCE700BFFEE72DE9F05F16
:1009000004460D461646364800881338B0F5803F39
:1009100002DD4FF4803009E03148008813380028A8
:1009200001D5002002E02E480088133887B22D48F8
:1009300000880F30B0F5803F02DD4FF4803009E0D1
:10094000284800880F30002801D5002002E0254803
:1009500000880F301FFA80F823480088B0F5803FE8
:1009600002DD4FF4803007E01F480088002801D5E1
:10097000002001E01C4800881FFA80F9384604F086
:100980009DFA834619480168584604F0DFFA82460A
:1009900017480168504604F0F1F82060404604F022
:1009A0008DFA834613480168584604F0CFFA824610
:1009B00011480168504604F0E1F82860484604F008
:1009C0007DFA83460D480168584604F0BFFA824616
:1009D0000B480168504604F0D1F83060BDE8F09F44
:1009E0002201002024010020200100200801002015
:1009F000140100200C01002018010020100100202B
:100A00001C01002070472DE9F04102460025002618
:100A1000002000230024002791F803C00CF00F05EC
:100A200091F803C00CF0100CBCF1000F03D091F84A
:100A300002C04CEA050591F800C0BCF1000F31D0AE
:100A4000146800202BE04FF0010C0CFA00F3B1F811
:100A500000C00CEA03069E4220D183004FF00F0C29
:100A60000CFA03F7BC4305FA03FC4CEA040491F8C2
:100A700003C0BCF1280F06D14FF0010C0CFA00FCAA
:100A8000C2F814C00AE091F803C0BCF1480F05D1C8
:100A90004FF0010C0CFA00FCC2F810C0401C0828F2
:100AA000D1D31460B1F800C0BCF1FF0F34DD54683D
:100AB00000202EE000F1080C4FF0010808FA0CF3BA
:100AC000B1F800C00CEA03069E4221D183004FF02A
:100AD0000F0C0CFA03F7BC4305FA03FC4CEA0404C0
:100AE00091F803C0BCF1280F05D100F1080C08FAF9
:100AF0000CF8C2F8148091F803C0BCF1480F07D17C
:100B000000F1080C4FF0010808FA0CF8C2F8108048
:100B1000401C0828CED35460BDE8F0810246002076
:100B200093680B400BB1012000E000207047416149
:100B30007047016170470AB1016100E0416170478F
:100B40002DE9F0414FF480507C4908604000091FB6
:100B500008607B487B4902687B4801F00BF87B48C2
:100B6000784902687848FFF769FC7948006803F023
:100B7000D9FF21F0004104460022764B03F06CFDC2
:100B800002D20020724908607348006803F0CAFF6F
:100B900021F00041044600226E4B03F05DFD02D2BD
:100BA00000206D4908606D4801686D48006804F0D8
:100BB000D5FA6C490860654801686B48006804F024
:100BC000CDFA044600F096FC684908606849694817
:100BD000006804F087FA11D367496648006804F09A
:100BE00081F90BD365496648006804F07BFA05D3A8
:100BF00064496348006804F075F906D20020624930
:100C0000086062490860624908606248007801280B
:100C100002D1FFF761FB0DE05E480078022809D1A0
:100C200046480838006880F4805044490839086014
:100C300001F08AFD58495548006804F053FA01D282
:100C4000554809E055495148006804F04BF901D274
:100C5000524801E04D4800684C4908604E494C48F4
:100C6000006804F03FFA01D24B4809E04B4948487C
:100C7000006804F037F901D2484801E044480068B0
:100C80004349086046494048006804F02BFA01D205
:100C9000434809E043493C48006804F023F901D285
:100CA000404801E038480068374908603848006823
:100CB00003F038FF21F00041064603F075FC84B2D2
:100CC00000213348006804F00DFA01D2012000E051
:100CD00000200546214600F0A9FC2C48006803F0DE
:100CE00021FF21F00041064603F05EFC85B20021A1
:100CF0002648006804F0F6F801D2012000E0002048
:100D00000446294600F02AFD1F48006803F00AFF48
:100D100021F00041064603F047FC84B200211A4846
:100D2000006804F0DFF901D2012000E00020054650
:100D3000214600F0ADFDBDE8F0810000140C01403B
:100D40005C0100200AD7A33BCDCC4C3D58010020CC
:100D5000A00100200000D03FA4010020E8010020F5
:100D6000A80100206C010020DC01002060010020AF
:100D700000005C42E001002000005CC2000048422C
:100D8000E4010020000048C254010020500100206E
:100D90004C0100209C02002000007A4400007AC42C
:100DA00000004844000048C400BFFEE710B50446F8
:100DB0000121082001F0B6FBC0200749088014205B
:100DC000C870032088700548FFF71DFEC021034846
:100DD000FFF7AFFE10BD0000EC010020000C014049
:100DE0002DE9F04105460F4690461E4600F0DCF81E
:100DF000002141EA4501C8B200F0A8F800F010F95E
:100E0000012804D100F0EEF80120BDE8F081384659
:100E100000F09CF800F004F9012803D100F0E2F89A
:100E20000120F2E700F0C0F8012101EB4501C8B252
:100E300000F08CF800F0F4F8012803D100F0D2F8AB
:100E40000120E2E700240FE000F014F808F80400A5
:100E5000701EA04203D1012000F056F802E00020ED
:100E600000F052F8601CC4B2B442EDDB00F0BAF8F6
:100E70000020CAE770B5002480212148FFF759FE01
:100E8000032002F0D3FF80201E4908800420C87090
:100E90001B48FFF7B8FD032002F0C8FF002518E04B
:100EA0006006040E40211648FFF741FE032002F0C1
:100EB000BDFF40211248FFF73CFE032002F0B6FFC1
:100EC00080210F48FFF72AFE00F001000443681C50
:100ED000C5B2082DE4DB40210948FFF728FE0320B6
:100EE00002F0A4FF8020074908801420C87004483D
:100EF000FFF789FD032002F099FF204670BD000036
:100F0000000C0140EC01002010B5044640210E48C1
:100F1000FFF70DFE032002F089FF224680210A48D8
:100F2000FFF709FE032002F081FF40210648FFF78A
:100F300000FE032002F07AFF40210348FFF7F7FD8F
:100F4000032002F073FF10BD000C014070B5054690
:100F500000241CE040211348FFF7E9FD032002F0C4
:100F600065FFC4F1070045FA00F000F0010280219E
:100F70000C48FFF7E0FD032002F058FF402109482C
:100F8000FFF7D7FD032002F051FF601CC4B2082C0C
:100F9000E0DB40210348FFF7CAFD032002F046FFD3
:100FA00070BD0000000C014010B580210C48FFF717
:100FB000C0FD40210A48FFF7BCFD032002F036FFC8
:100FC00080210748FFF7B3FD032002F02FFF4021E7
:100FD0000348FFF7ACFD032002F028FF10BD00001E
:100FE000000C014010B540210C48FFF7A0FD802106
:100FF0000A48FFF79CFD032002F018FF4021074834
:10100000FFF797FD032002F011FF80210348FFF74F
:1010100090FD032002F00AFF10BD0000000C01400B
:1010200010B540211D48FFF782FD032002F0FEFEAF
:1010300080211A48FFF77DFD032002F0F7FE4021D2
:101040001648FFF776FD032002F0F0FE80201449D9
:1010500008800420C8701148FFF7D5FC032002F077
:10106000E5FE80210D48FFF759FD00F00104032043
:1010700002F0DCFE80200A4908801420C87007486E
:10108000FFF7C1FC032002F0D1FE40210348FFF727
:101090004EFD032002F0CAFE204610BD000C0140A8
:1010A000EC0100202DE9F04105460E461746984612
:1010B000FFF77AFF002141EA4501C8B2FFF746FF7A
:1010C000FFF7AEFF012804D1FFF78CFF0120BDE838
:1010D000F0813046FFF73AFFFFF7A2FF012803D166
:1010E000FFF780FF0120F2E700240CE0385DFFF7F6
:1010F0002DFFFFF795FF012803D1FFF773FF0120B4
:10110000E5E7601CC4B24445F0DBFFF76BFF00204D
:10111000DDE7000010B504460121082001F002FAC5
:101120004FF44060074908801420C870032088707D
:101130000548FFF768FC4FF440610348FFF7F9FCEE
:1011400010BD0000F0010020000C01402DE9F0412D
:1011500005460F4690461E4600F0EAF8002141EA97
:101160004501C8B200F0B2F800F026F9012804D118
:1011700000F000F90120BDE8F081384600F0A6F843
:1011800000F01AF9012803D100F0F4F80120F2E789
:1011900000F0CEF8012101EB4501C8B200F096F84D
:1011A00000F00AF9012803D100F0E4F80120E2E799
:1011B00000240FE000F014F808F80400701EA042AC
:1011C00003D1012000F05CF802E0002000F058F8A4
:1011D000601CC4B2B442EDDB00F0CCF80020CAE7DA
:1011E00070B500244FF400612348FFF7A2FC0320F0
:1011F00002F01CFE4FF40060204908800420C870F3
:101200001D48FFF700FC032002F010FE00251BE044
:101210006006040E4FF480611748FFF788FC032036
:1012200002F004FE4FF480611348FFF782FC0320B4
:1012300002F0FCFD4FF400610F48FFF76FFC00F077
:1012400001000443681CC5B2082DE1DB4FF4806146
:101250000948FFF76CFC032002F0E8FD4FF4006042
:10126000064908801420C8700348FFF7CCFB032010
:1012700002F0DCFD204670BD000C0140F0010020B2
:1012800010B504464FF480610F48FFF750FC03206F
:1012900002F0CCFD22464FF400610B48FFF74BFCF7
:1012A000032002F0C3FD4FF480610748FFF741FCC3
:1012B000032002F0BBFD4FF480610348FFF737FCC9
:1012C000032002F0B3FD10BD000C014070B50546CF
:1012D00000241FE04FF480611448FFF728FC03202E
:1012E00002F0A4FDC4F1070045FA00F000F001028D
:1012F0004FF400610D48FFF71EFC032002F096FD3D
:101300004FF480610948FFF714FC032002F08EFDC2
:10131000601CC4B2082CDDDB4FF480610348FFF78A
:1013200006FC032002F082FD70BD0000000C0140AD
:1013300010B54FF400610E48FFF7FBFB4FF48061DE
:101340000B48FFF7F6FB032002F070FD4FF400613D
:101350000748FFF7ECFB032002F068FD4FF48061C3
:101360000348FFF7E4FB032002F060FD10BD00001E
:10137000000C014010B54FF480610E48FFF7D7FB19
:101380004FF400610B48FFF7D2FB032002F04EFD43
:101390004FF480610748FFF7CCFB032002F046FDC5
:1013A0004FF400610348FFF7C4FB032002F03EFD49
:1013B00010BD0000000C014010B54FF480612148C1
:1013C000FFF7B5FB032002F031FD4FF400611D482B
:1013D000FFF7AFFB032002F029FD4FF480611948AD
:1013E000FFF7A7FB032002F021FD4FF40060164930
:1013F00008800420C8701348FFF705FB032002F0A3
:1014000015FD4FF400610F48FFF788FB00F0010461
:10141000032002F00BFD4FF400600B4908801420FC
:10142000C8700848FFF7EFFA032002F0FFFC4FF402
:1014300080610448FFF77BFB032002F0F7FC2046A5
:1014400010BD0000000C0140F00100202DE9F0412A
:1014500005460E4617469846FFF76AFF002141EA07
:101460004501C8B2FFF732FFFFF7A6FF012804D1FC
:10147000FFF780FF0120BDE8F0813046FFF726FF2F
:10148000FFF79AFF012803D1FFF774FF0120F2E76D
:1014900000240CE0385DFFF719FFFFF78DFF0128EE
:1014A00003D1FFF767FF0120E5E7601CC4B24445A4
:1014B000F0DBFFF75FFF0020DDE7000008B501214A
:1014C000482001F02FF84FF44050ADF800001020F4
:1014D0008DF8030003208DF8020069460448FFF7E9
:1014E00092FA4FF440510248FFF723FB08BD000079
:1014F000000C01402DE9F04106460024002500279C
:1015000043484449098840F821604348007870BB4B
:101510004048048817E0621E3D4B53F822101A46DB
:1015200052F8240003F0DEFC0BD2394850F8247046
:10153000601E374951F8200041F82400601E41F830
:101540002070601E84B2002CE5DC3249088800EB74
:10155000D07149102E4A52F82110304A11602D489E
:1015600000881E2846D101202B49087042E0FFE781
:10157000002407E0264850F82400294941F82400B7
:10158000601C84B21F2CF5DB00241BE0601C85B2BC
:1015900014E0234A52F8251052F8240003F0A2FD6B
:1015A0000AD21F4850F8247050F825001C4941F811
:1015B0002400084640F82570681C85B21F2DE8DB22
:1015C000601C84B21E2CE1DB07240AE0144850F8AA
:1015D00024101248006803F0D1FA10490860601C1A
:1015E00084B2172CF2DB0F490C48006803F034FB7F
:1015F0000A49086007480088401C1F2190FBF1F24F
:1016000001FB12000349088004480068BDE8F0812E
:10161000E4020020B6000020B4000020B800002042
:10162000600300200000784100BFFEE770B505466A
:101630000C46002C63D032480088844215D03C2CE4
:1016400009DA3C2090FBF4F0401E2E49088001206E
:101650002D49088007E000202A4908803C2094FB9F
:10166000F0F0294908802648048028480088254948
:101670000988884205DA25480088401C23490880EB
:101680003DE000202149088000F048F8204800880B
:10169000204909880844204949571B4A128801FB00
:1016A00002001C49098890FBF1F201FB1200184965
:1016B0000880084640881749098808441649495750
:1016C000114A128801FB02001249098890FBF1F2CD
:1016D00001FB12000E494880084680880D490988A0
:1016E00001440D484057084A128800FB021009497E
:1016F000098890FBF1F201FB12000549888070BD5A
:101700000A0200200C020020100200200E0200201D
:10171000F8010020F40100203653000810B50C48F1
:1017200000880C4A32F810100B4801F058FC0848A9
:101730004088084A32F81010074801F04EFC04486F
:101740008088044A32F81010034801F044FC10BDB0
:10175000F8010020DC0300200004004070B50546BD
:101760000C46002C63D032480088844215D03C2CB3
:1017700009DA3C2090FBF4F0401E2E49088001203D
:101780002D49088007E000202A4908803C2094FB6E
:10179000F0F0294908802648048028480088254917
:1017A0000988884205DA25480088401C23490880BA
:1017B0003DE000202149088000F048F820480088DA
:1017C000204909880844204949571B4A128801FBCF
:1017D00002001C49098890FBF1F201FB1200184934
:1017E000088008464088174909880844164949571F
:1017F000114A128801FB02001249098890FBF1F29C
:1018000001FB12000E494880084680880D4909886E
:1018100001440D484057084A128800FB021009494C
:10182000098890FBF1F201FB12000549888070BD28
:1018300012020020140200201802002016020020CC
:10184000FE010020F40100203653000810B50D48B9
:1018500000880D4A32F810100C4801F0BAFB094814
:101860004088094A32F810104FF0804001F0B7FB71
:1018700004488088044A32F810104FF0804001F08C
:10188000ACFB10BDFE010020DC0300200004004082
:1018900070B505460C46002C63D03248008884425F
:1018A00015D03C2C09DA3C2090FBF4F0401E2E4968
:1018B000088001202D49088007E000202A4908807F
:1018C0003C2094FBF0F029490880264804802848F1
:1018D000008825490988884205DA25480088401C87
:1018E000234908803DE000202149088000F048F8A5
:1018F00020480088204909880844204949571B4A44
:10190000128801FB02001C49098890FBF1F201FBDF
:101910001200184908800846408817490988084479
:1019200016494957114A128801FB020012490988D9
:1019300090FBF1F201FB12000E49488008468088B6
:101940000D49098801440D484057084A128800FB98
:1019500002100949098890FBF1F201FB12000549C8
:10196000888070BD1A0200201C0200202002002086
:101970001E02002004020020F4010020365300085B
:1019800010B50D4800880D4A32F810100C4801F0CF
:1019900026FB09484088094A32F810104FF0804071
:1019A00001F019FB04488088044A32F810100448FA
:1019B00001F013FB10BD000004020020DC03002036
:1019C0000008004000B589B001210C2000F0AAFDFC
:1019D0000121072000F096FD18208DF82300032038
:1019E0008DF822008020ADF8200008A95548FFF7A7
:1019F0000AF80320ADF8200008A95348FFF703F8C0
:101A00004C20ADF8200008A94E48FEF7FCFF02204C
:101A1000ADF8200008A94B48FEF7F5FF4FF44070E1
:101A2000ADF8200008A94848FEF7EDFF4720ADF8C3
:101A300014003120ADF818000020ADF81600ADF804
:101A40001A008DF81C0005A9404801F0CBFA05A941
:101A50004FF0804001F0C6FA05A93D4801F0C2FAF6
:101A60006020ADF804000120ADF806000020ADF8BC
:101A70000C00ADF81000ADF80A0001A9334801F0E0
:101A8000A3F90821314801F0F1F901A92F4801F02B
:101A9000FBF908212D4801F047FA01A92B4801F074
:101AA0004DFA0821294801F087FA01A9274801F0D9
:101AB00035F90821254801F07DF901A94FF0804052
:101AC00001F0E2F90821C80601F02EFA01A94FF051
:101AD000804001F033FA0821C80601F06DFA01A92F
:101AE0004FF0804001F070F90821C80601F0BEF9FE
:101AF00001A9174801F0C8F90821154801F014FAA6
:101B000001A9134801F01AFA0821114801F054FA0A
:101B100001210E4801F0D6F80121880701F0D2F822
:101B200001210B4801F0CEF80121084801F0D9F855
:101B30000121880701F0D5F80121054801F0D1F80D
:101B400009B000BD00080140000C01400004004045
:101B50000008004010B5FFF7E1FDFFF777FEFFF743
:101B60000FFF10BD10B500F08DFFFFF72BFFFFF743
:101B7000F1FF10BD2DE9F74F8CB08346924600F07F
:101B8000CDF800F039F957480D99006803F0DEF9F7
:101B9000074655480168384602F0F0FF05464FF009
:101BA0007E51584603F0CFFA0646294603F0CEF997
:101BB000044602F0B7FFCDE908014C48006802F086
:101BC000B1FF804689464A48006802F0ABFF4246B2
:101BD0004B46CDE9000102F021F8CDE9020158465B
:101BE00002F0A0FF0646DDE9022302F071FD0022AB
:101BF000404BCDE9040102F06BFD04463E4A3F4BE9
:101C000002F04AFBCDE90601DDE9082302F088FA7B
:101C1000CDE90A0102F052FA3349086038480D99BB
:101C2000006803F093F9814636480168484602F09F
:101C3000A5FF07464FF07E51584603F084FA8046D0
:101C4000394603F083F9064602F06CFFCDE908013E
:101C50002648006802F066FFCDE900012A480068C6
:101C600002F060FF0646DDE9002301F0D7FF804661
:101C700089462649584603F069F9064602F052FFA4
:101C800042464B46CDE9020102F022FD0022194BEB
:101C9000CDE9040102F01CFD174A184BCDE90601FD
:101CA00002F0FAFA0446DDE9082302F039FACDE938
:101CB0000A0102F003FA134908605146144800680B
:101CC00003F04CFA0546134902F0C6FF04461248D9
:101CD0000168204602F052FF0F4908600FB0BDE8CE
:101CE000F08F000094010020A00100208C01002052
:101CF0008801002000806640182D4454FB210940D3
:101D000098010020A401002084010020000080BF71
:101D10009C01002000004843A80100202DE9FC415F
:101D200006236A463B216820FFF710FA10B1012014
:101D3000BDE8FC819DF801009DF8001040EA0120FB
:101D400000B2214908809DF803009DF8021040EA86
:101D5000012000B21C4948809DF805009DF8041040
:101D600040EA012000B218498880B1F9000002F071
:101D700048FC06460022154B02F08EFA044602F09B
:101D80009DF9134908601049B1F9020002F039FCCD
:101D9000064600220D4B02F07FFA044602F08EF94F
:101DA0000C4908600849B1F9040002F02AFC064613
:101DB0000022064B02F070FA044602F07FF9064951
:101DC00008600020B4E70000700100200000D0404F
:101DD00084010020880100208C01002010B501231F
:101DE000044A75216820FFF7B1F908B1012010BD40
:101DF0000020FCE7820100202DE9FC4106236A4611
:101E000043216820FFF7A2F910B10120BDE8FC8151
:101E10009DF801009DF8001040EA012000B2214920
:101E200008809DF803009DF8021040EA012000B2EE
:101E30001C4948809DF805009DF8041040EA0120E7
:101E400000B218498880B1F9000002F0DAFB0646BA
:101E5000154A164B02F020FA044602F02FF91449F5
:101E600008601049B1F9020002F0CBFB06460E4AA9
:101E70000E4B02F011FA044602F020F90D490860F9
:101E80000849B1F9040002F0BCFB0646064A074BBC
:101E900002F002FA044602F011F907490860002036
:101EA000B4E7000078010020FCA9F1D24D62304077
:101EB00094010020980100209C010020F8B5044600
:101EC0000D460020FFF726F90A2001F089FFFFF7F1
:101ED00085FF08B10120F8BD29480078682801D0A5
:101EE0000220F8E78020009001236A466B216820D9
:101EF000FFF7ACFA08B10320EDE70A2001F070FF0C
:101F00000020009001236A466B216820FFF79EFAAB
:101F100008B10420DFE70120009001236A466B210D
:101F20006820FFF793FA08B10A20D4E71820009040
:101F300001236A461B216820FFF788FA08B10B20AD
:101F4000C9E70020009001236A461C216820FFF7A2
:101F50007DFA08B10C20BEE72946204600F03FF884
:101F600008B10D20B7E704EBD471C1F34F00294647
:101F700000F008F808B10E20ADE70020ABE7000044
:101F80008201002038B504460D46DDB1BC2C02DDCF
:101F90000120009018E0622C02DD0220009013E086
:101FA0002A2C02DD032000900EE0142C02DD042018
:101FB000009009E00A2C02DD0520009004E00620D4
:101FC000009001E00020009001236A461A21682059
:101FD000FFF73CFA08B1012038BD0020FCE7F8B556
:101FE00004460E466EB14FF47A75B4F57A7F01DD82
:101FF000284604E0042C01DA042000E020460446D0
:102000000CE04FF4FA55B4F5FA5F01DD284604E020
:10201000202C01DA202000E02046044695FBF4F055
:10202000401EC0B2009001236A4619216820FFF7C4
:102030000DFA08B10120F8BD0020FCE77047000050
:1020400070B5002100230F22C47804B3154C246816
:1020500004F4E064C4F5E064210AC1F10403CA4059
:10206000447804FA03F184781440214309010E4CAA
:102070000678A155047804F01F050124AC400578CA
:102080006D11AD0005F1E025C5F8004109E00478C7
:1020900004F01F050124AC40044D0678761145F884
:1020A000264070BD0CED00E000E400E080E100E0BF
:1020B0002DE9FC5F83468A4651464A48006802F093
:1020C0008DFE09D04748C0F800A0002046490860AE
:1020D00046490860464908605146584603F03EF8B4
:1020E00044490860084601684348006802F02EFF32
:1020F000424908603F48006802F014FD21F00041A9
:10210000044600223E4B02F0E1FB03D800203D498B
:1021100008602BE03748006802F004FD21F0004120
:1021200004460022384B02F097FA04D84FF07E5054
:10213000344908601AE02F48006802F0F3FC21F0EF
:10214000004180460022304B01F0EAFF00222C4B78
:10215000CDE9000102F0A0F8064600222B4B02F068
:10216000EBFB044601F0AAFF2649086021480168FC
:102170001E48006802F002FD1C49086024480168FE
:102180002048006802F0E2FE044618480168204634
:1021900002F0DCFE1F490860154801681548006818
:1021A00002F0DCFF1049086012480068104908601E
:1021B0000D4801681848006802F0C8FE1749086019
:1021C000144801680D48006802F0D8FC0446134822
:1021D0000168204602F0D2FC1149086008460068F8
:1021E000BDE8FC9F3C0000204C000020480000207F
:1021F0004400002040000020140000205400002073
:1022000000004E406000002000003E400000F03F13
:1022100018000020580000201C0000205C00002056
:10222000500000202DE9FC5F83468A4651464A480B
:10223000006802F0D3FD09D04748C0F800A0002094
:102240004649086046490860464908605146584674
:1022500002F084FF4449086008460168434800686A
:1022600002F074FE424908603F48006802F05AFCE0
:1022700021F00041044600223E4B02F027FB03D828
:1022800000203D4908602BE03748006802F04AFC16
:1022900021F0004104460022384B02F0DDF904D859
:1022A0004FF07E50344908601AE02F48006802F071
:1022B00039FC21F0004180460022304B01F030FF14
:1022C00000222C4BCDE9000101F0E6FF064600227A
:1022D0002B4B02F031FB044601F0F0FE264908606A
:1022E000214801681E48006802F048FC1C4908604B
:1022F000244801682048006802F028FE0446184877
:102300000168204602F022FE1F4908601548016856
:102310001548006802F022FF104908601248006862
:10232000104908600D4801681848006802F00EFE68
:1023300017490860144801680D48006802F01EFC47
:10234000044613480168204602F018FC1149086051
:1023500008460068BDE8FC9F64000020740000206F
:10236000700000206C000020680000202000002089
:102370007C00002000004E408800002000003E400D
:102380000000F03F240000208000002028000020F2
:1023900084000020780000202DE9FC5F83468A46F7
:1023A00051464748006802F019FD09D04448C0F87A
:1023B00000A0002043490860434908604349086081
:1023C0005146584602F0CAFE414908600846016875
:1023D0004048006802F0BAFD3F4908603C48006888
:1023E00002F0A0FB21F00041044600223B4B02F02A
:1023F0006DFA03D800203A4908602BE034480068A1
:1024000002F090FB21F0004104460022354B02F01F
:1024100023F904D84FF07E50314908601AE02C4867
:10242000006802F07FFB21F00041804600222D4B26
:1024300001F076FE0022294BCDE9000101F02CFFCE
:1024400006460022284B02F077FA044601F036FED9
:10245000234908601E4801681B48006802F08EFB93
:1024600019490860084601682048006802F06EFDBE
:102470001F490860154801681548006802F06EFEA3
:102480001049086012480068104908600D4801684A
:102490001848006802F05AFD17490860144801689E
:1024A0000D48006802F06AFB0446134801682046A4
:1024B00002F064FB1149086008460068BDE8FC9F13
:1024C0008C0000209C000020980000209400002038
:1024D000900000202C000020A400002000004E40AE
:1024E000B000002000003E400000F03F300000201F
:1024F000A800002034000020AC000020A000002034
:102500007047000029B1064AD2690243044BDA61E0
:1025100004E0034AD2698243014BDA61704700004C
:102520000010024029B1064A92690243044B9A61A5
:1025300004E0034A92698243014B9A6170470000AC
:102540000010024030B500210022002400232D4D50
:102550006D6805F00C0121B1042905D0082923D1AB
:1025600005E0294D056022E0274D05601FE0254D5F
:102570006D6805F47012234D6D6805F480340225F2
:1025800005EB92421CB9214D554305600BE01D4DF2
:102590006D6805F400351DB11C4D5543056002E022
:1025A000194D5543056002E0174D056000BF00BF9F
:1025B000144D6D6805F0F0010909154D6B5C056857
:1025C000DD4045600F4D6D6805F4E061090A104D6E
:1025D0006B5C4568DD4085600A4D6D6805F46051AF
:1025E000C90A0B4D6B5C4568DD40C560054D6D68E3
:1025F00005F44041890B074D6B5CC568B5FBF3F5ED
:10260000056130BD0010024000127A0000093D0053
:10261000AC020020BC020020704700003EB5054619
:1026200002201C49087006201B490870002404E0A1
:1026300000200DF80400601CC4B20A2CF8DBAA20AC
:102640008DF800008DF80100124800788DF8020026
:10265000114800788DF8030002208DF804008DF8F1
:10266000055009E09DF806001DF804100844C0B2AA
:102670008DF80600601CC4B2062CF3DB0A208DF82E
:1026800007000D208DF809000A226946034800F072
:1026900054FE3EBD300200203102002000380140CF
:1026A0002DE9FF4105460E461746012023490870D3
:1026B000062023490870002404E000200DF80400DF
:1026C000601CC4B20D2CF8DBAA208DF800008DF838
:1026D00001001A4800788DF80200194800788DF83A
:1026E0000300280A8DF80400E8B28DF80500300ACE
:1026F0008DF80600F0B28DF80700380A8DF8080052
:10270000F8B28DF8090009E09DF80A001DF80410E0
:102710000844C0B28DF80A00601CC4B20A2CF3DB76
:102720000A208DF80B000D208DF80C000D22694653
:10273000044800F002FEBDE8FF81000030020020E6
:10274000310200200038014010B500F079F82E4821
:1027500000F0B6F82D4A2E492E48FEF7CFF82E4944
:102760002B48006802F0BEFC01D22B4809E02B493F
:102770002748006802F0B6FB01D2284801E024484F
:1027800000682349086024492248006802F0AAFC36
:1027900001D2214809E021491E48006802F0A2FB4D
:1027A00001D21E4801E01B4800681A4908601C4914
:1027B0001648006802F096FC01D2194809E0194950
:1027C0001248006802F08EFB01D2164801E00F4863
:1027D00000680E4908600F48016813480068FFF759
:1027E00067FC124908600A48016811480068FFF751
:1027F00019FD10490860054801680F480068FFF797
:10280000CBFD0E49086010BD6666663F440100209E
:10281000480100204001002000004842000048C25A
:102820000000F0410000F0C1A00100204C01002098
:10283000A4010020500100206C0100205401002060
:1028400010B515481549086000211448006802F0C9
:102850007DFB0446124902F076FC124908601248DA
:102860001249086000211148006802F06FFB04461D
:102870000F4902F068FC0F4908600B480E490860D8
:1028800000210D48006802F061FB0446084902F08F
:102890005AFC0A49086010BD0000703A0801002087
:1028A0000000F0C1140100200000C83A0C01002013
:1028B000000048C218010020100100201C01002067
:1028C0002DE9F04704463149088802F0F7FA8046BE
:1028D0004FF07E51204602F036FC8146414602F020
:1028E00035FB06462A48008802F0E8FA8046214671
:1028F00002F02CFB0746314602F040F9054602F093
:10290000BDFA234908802149488802F0D7FA804659
:102910004FF07E51204602F016FC8146414602F0FF
:1029200015FB06461B48008802F0C8FA804621467F
:1029300002F00CFB0746314602F020F9054602F092
:102940009DFA144908801149888802F0B7FA804638
:102950004FF07E51204602F0F6FB8146414602F0E0
:10296000F5FA06460C48008802F0A8FA804621468F
:1029700002F0ECFA0746314602F000F9054602F093
:102980007DFA05490880BDE8F08700002601002097
:1029900022010020240100202001002010B500F0B9
:1029A00001F810BD0CB5002001900090334800687C
:1029B00040F480303149086000BF3048006800F4BE
:1029C000003000900198401C0190009818B90198BF
:1029D000B0F5A06FF1D12948006800F4003010B1C3
:1029E0000120009001E0002000900098012843D1D0
:1029F0002348006840F0100021490860084600683C
:102A000020F0030008600846006840F002000860FB
:102A10001A484068194948600846406848600846B6
:102A2000406840F4806048600846406820F47C10AC
:102A300048600846406840F4E8104860084600686E
:102A400040F08070086000BF0C48006800F0007023
:102A50000028F9D00948406820F003000749486081
:102A60000846406840F00200486000BF03484068E4
:102A700000F00C000828F9D10CBD00000010024045
:102A8000002002402DE9F0478EB04FF0000A4FF4CD
:102A900096604349088008460088032190FBF1F0C6
:102AA00040490880002040490880084600883D4988
:102AB000098808443C4948800846408839490988C3
:102AC0000844394988800020384908800846008831
:102AD00034490988084435494880084640883149C6
:102AE0000988084431498880002031490880084617
:102AF00000882C49098808442D49488008464088A8
:102B00002849098808442A49888000BF41E02448B0
:102B1000008801F08DFDCDE902010AF1010001F00C
:102B200070FD06460022234B01F0D2FDCDE90001E5
:102B3000DDE9022301F0B0FB00224FF08043CDE934
:102B4000040101F0C5FD04461B4A1C4B01F0C0FD09
:102B5000804601F013FA0022164BCDE9060101F080
:102B6000DFFA0022164BCDE9080101F0B1FD002289
:102B70004FF08043CDE90A0101F08EFBCDE90C0155
:102B800001F012FD0F4921F81A000AF101001FFAA5
:102B900080FA034800888245B9DB0EB0BDE8F087B3
:102BA000F4010020F6010020F8010020FE010020C1
:102BB000040200200000F03F182D4454FB2109407E
:102BC00000804840DC030020042808D14FF0E021B9
:102BD000096941F004014FF0E022116107E04FF074
:102BE000E021096921F004014FF0E02211617047F2
:102BF0007047000010B51348006840F0010011490B
:102C0000086008464068104908400E494860084678
:102C100000680E4908400B4908600846006820F427
:102C2000802008600846406820F4FE0048604FF4A9
:102C30001F008860FFF7B2FE4FF000600449086093
:102C400010BD0000001002400000FFF8FFFFF6FE7C
:102C500008ED00E02DE9F0410121154800F04DF8A4
:102C600018B30121124800F039F8124912480068DF
:102C700002F06CF9074602F0E5F804B20D490F487E
:102C8000006802F063F9074602F0DCF805B2094972
:102C90000B48006802F05AF9074602F0D3F806B272
:102CA000224629463046FFF7FBFCBDE8F0810000D4
:102CB000000C00400000C842A8010020A001002034
:102CC000A401002021B1028842F08002028004E0C9
:102CD00002884FF67F731A4002807047CA4302820F
:102CE000704721B1028842F00102028004E00288AC
:102CF0004FF6FE731A400280704730B5024600203E
:102D000000230024158A05EA0103958905EA0104D8
:102D100013B10CB1012000E0002030BD70B50024DB
:102D200000220023058C4FF6FE7635400584028C88
:102D30008388048B4FF68F752C40B51E2C400D8870
:102D40002C43751E2A400D892A434D882A43144D71
:102D5000A8420BD0134DA84208D0134DA84205D06D
:102D6000124DA84202D0124DA84213D14FF6F7756A
:102D70002A404D892A434FF6FB752A408D882A4305
:102D80004FF6FF652B404FF6FF552B408D892B43A7
:102D9000CD892B4383800483CD888586028470BDD2
:102DA000002C01400034014000400140004401403B
:102DB000004801400A460021018B4FF6F773194085
:102DC000114301837047000070B5002400220023E6
:102DD000058C4FF6EF7635400584028C8388048B92
:102DE00048F6FF752C404FF6FF452C400D884FF6F6
:102DF000FF7606EA05252C434FF6DF752A400D893C
:102E000006EA05152A434D8806EA05152A43154D9D
:102E1000A84202D0144DA8421DD14FF67F752A401A
:102E20004D894FF6FF7606EA05152A434FF6BF7522
:102E30002A408D8806EA05152A434FF6FF352B40B8
:102E40004FF2FF752B408D8906EA85052B43CD890E
:102E500006EA85052B4383800483CD880587028499
:102E600070BD0000002C0140003401400A460021E2
:102E7000018B4FF2FF7319404FF6FF7303EA0223F1
:102E8000194301837047000070B50024002200231D
:102E9000058C4FF6FF6635400584028C8388848B51
:102EA0004FF68F752C404FF6FC752C400D882C4347
:102EB0004FF6FF552A400D894FF6FF7606EA0525A5
:102EC0002A434D8806EA05252A43154DA84202D01B
:102ED000144DA8421DD14FF2FF752A404D894FF67F
:102EE000FF7606EA05252A434FF6FF352A408D88EE
:102EF00006EA05252A434EF6FF752B404DF6FF7571
:102F00002B408D8906EA05152B43CD8906EA051568
:102F10002B4383808483CD888587028470BD000025
:102F2000002C0140003401400A460021818B4FF6FD
:102F3000F7731940114381837047000070B5002278
:102F400000230024058C4EF6FF7635400584038C63
:102F50008488828B48F6FF752A404FF6FF452A4049
:102F60000D884FF6FF7606EA05252A434DF6FF75D4
:102F70002B400D8906EA05352B434D8806EA0535B9
:102F80002B430B4DA84202D00A4DA84208D14BF664
:102F9000FF752C408D894FF6FF7606EA85152C4388
:102FA00084808283CD88A0F84050038470BD0000E7
:102FB000002C0140003401400A460021818B4FF271
:102FC000FF7319404FF6FF7303EA0223194381830D
:102FD0007047818670470187704781877047A0F8E6
:102FE00040107047002202881D4B98420ED01D4BA6
:102FF00098420BD0B0F1804F08D01B4B984205D0BF
:103000001A4B984202D01A4B984204D14FF68F7354
:103010001A404B881A43174B984207D0164B9842D8
:1030200004D04FF6FF431A40CB881A4302808B88A6
:1030300083850B8803850A4B98420BD0094B984235
:1030400008D00E4B984205D00D4B984202D00D4B44
:10305000984201D10B7A03860123838270470000D6
:10306000002C0140003401400004004000080040F2
:10307000000C0040001000400014004000400140DF
:10308000004401400048014010B5002440F22551A1
:10309000354800F08CF8002865D0334800F042F93C
:1030A0003249334A1278885431480078401C3049FC
:1030B00008700846007806282DD12C488078012811
:1030C00012D12A48007911280ED100200870274912
:1030D0004879FFF7A3FA04E0002024490855601C52
:1030E000C4B2062CF8DB16E020488078032812D101
:1030F00000201F4908701D4800791E4908701B49AF
:103100004879FFF78BFA04E0002018490855601C45
:10311000C4B2062CF8DB164800780B2823D1002017
:103120001349087011484179007941EA0020124999
:1031300008800E48C179807941EA00200E49488014
:103140000A48417A007A41EA00200B498880074901
:10315000887AFFF763FA04E0002004490855601CF0
:10316000C4B20B2CF8DB10BD00380140F82400205D
:103170009D0200209C0200202601002021B18289AE
:1031800042F40052828104E082894DF6FF731A40B6
:103190008281704702460020B1F5007F00D100BF58
:1031A00013880B400BB1012000E00020704770B580
:1031B0000246002400230025002040F66A16B14292
:1031C00000D100BFC1F3421501F01F03012606FA2A
:1031D00003F3012D02D19689334006E0022D02D17E
:1031E000168A334001E0968A33400C12012606FA13
:1031F00004F41688344013B10CB1012000E0002023
:1032000070BDF0B50346002400260025002040F6DE
:103210006A17B94200D100BF1846C1F3421401F049
:103220001F06012707FA06F5012C01D10C3004E036
:10323000022C01D1103000E014301AB107682F437E
:10324000076002E00768AF430760F0BD2DE9F04773
:1032500086B005460E460024A24600BFA1460027C0
:10326000B08900B100BF2F462C8A4CF6FF70044095
:10327000F08804432C82AC894EF6F3100440B088E9
:1032800031890843718908430443AC81AC8A4FF605
:10329000FF400440B0890443AC8201A8FFF752F913
:1032A0001F48874202D1DDF810A001E0DDF80CA034
:1032B000A88900F4004040B10AEBCA0000EB0A10F4
:1032C00031684900B0FBF1F807E00AEBCA0000EBF7
:1032D0000A1031688900B0FBF1F86420B8FBF0F007
:1032E00004012009642101FB1089A88900F4004031
:1032F00040B1322000EBC900B0FBF1F000F0070054
:10330000044308E0322000EB09106421B0FBF1F027
:1033100000F00F0004432C8106B0BDE8F0870000E8
:103320000038014001468888C0F308007047C1F3A7
:1033300008028280704700BFFEE72DE9F041074692
:103340000D461646002405E0295D384600F00DF8CC
:10335000601CC4B2B442F7DB00BF40213846FFF71F
:1033600019FF0028F9D0BDE8F08170B504460D467C
:1033700029462046FFF7DBFF00BF80212046FFF7EC
:1033800009FF0028F9D070BD490050EAC12018BFDC
:1033900004204A0D18BF40F0010040F2FF72B2EB6A
:1033A000515F08BF40F00200012808BF05207047A8
:1033B0002DE9F74F144694B00021C4E90211159984
:1033C000079121F00045C9498D4206DC1599C4E9F1
:1033D000000117B00020BDE8F08FC549DFF814A345
:1033E000A9423CDD0799C44E0029C44FC44A15992F
:1033F000534619DD01F0ACFA554506D0C14AC24B1F
:1034000001F0A6FAC4E900010AE04FF0D352BE4B26
:1034100001F09EFA32463B4601F09AFAC4E90001F7
:1034200017B00120BDE8F08F00F07AFE554506D0B8
:10343000B44AB54B00F074FEC4E900010AE04FF055
:10344000D352B14B00F06CFE32463B4600F068FEB2
:10345000C4E9000117B04FF0FF30BDE8F08FAB4971
:10346000A942159978DB21F0004183468846A84A95
:10347000A84B01F02DF90022A74B00F051FE01F0FE
:1034800063F8099001F0BDF806460F469C4A534682
:1034900001F01EF943465A4601F04EFA80468A462C
:1034A000984A994B3046394601F012F92A0D012508
:1034B0000B924246534601F03FFA032DC4E9000146
:1034C00039D00B98C1F30A51401A05EB4511113957
:1034D000814230DA9148C346784400EB0510CDF8BC
:1034E0000CA00C90D0E900233046394601F0F0F8EA
:1034F00002460B46049106905846039901F028FABB
:1035000080468A4602460B465846039901F020FA47
:10351000049B069A01F01CFA83460C9803913946E5
:10352000D0E90223304601F0D3F85A46039B01F05C
:103530000FFA6D1CBDE707980028A2BF099817B0C5
:10354000BDE8F08F616881F000416160099817B0B3
:103550004042BDE8F08FFFE784461598C1F31301A0
:10356000C0F30A50A0F2F5304FEA601800F01F06D1
:10357000C6F12000139000200690079041F4801EB1
:1035800005206D4676B1664A08EB00017A4452F890
:10359000213002EB8101B3404A68139922FA01F10C
:1035A000194305E05F4908EB0002794451F8221005
:1035B000A1FB0E27A1FB0C131A449A4234BF01232E
:1035C000002303EB070A05EB8003D3E901B70F449F
:1035D0008F4234BF0121002193448B4411B19345A4
:1035E00002D903E0934501D2012100E00021C3E9A3
:1035F00001B7514445F82010011EA0F10100C1DCC3
:103600000298059F00F10050800F12900298DDE9AA
:103610000356800000F0F5FF834628460D9101F027
:1036200007F86FF01D0201F040FECDE90E013046B3
:1036300000F0FEFF6FF03D0201F037FE80468A4643
:10364000384600F0F5FF6FF05D0201F02EFE0746F0
:1036500042465346119100F063FDDDE90E2300F070
:103660005FFD5A460D9B00F05BFD00250E465A4655
:1036700028460D9B01F06CF9DDE90E2301F068F995
:103680004246534601F064F93A46119B01F054F961
:10369000DFF898A0244A534601F01AF807468846F6
:1036A000234A244B3146284601F012F83A46434655
:1036B00000F036FD074688464FF0A8425346314693
:1036C000284601F005F83A46434600F029FD159AD0
:1036D00012F0004F04D0129A81F00041524212922F
:1036E000C4E90001129817B0BDE8F08FFB21E93F53
:1036F0007CD90240FB21F93F7370032E8A19A33B4A
:10370000000040543163621A61B4D03DFB2139415D
:1037100083C8C96D305FE43F0000E03F2C1F00000C
:10372000A81E00008A1E0000182D4454FB21F93DFC
:103730003326A611460B113C2DE9FF4D21F0004820
:1037400007460C46B8F1795F08DA00F0FDFE002864
:1037500001BF0020324904B0BDE8F08D3A4623464F
:103760001046194600F0B4FF054602462D480E46A5
:103770000B460621784400F05DF82A46334600F0F7
:10378000A7FFDDE9022382468B463846214600F03A
:103790009FFF04460F4652465B462846314600F0DE
:1037A00097FF22463B4601F0D3F807468A464FF082
:1037B000FF322846314601F078FD1B4A90450ADA6F
:1037C0003A46534601F0C4F804B00022BDE8F04D7B
:1037D000134B01F0B1B8154A4245A8BFA8F5001532
:1037E0004FF00004B8BF124D22462B4601F0B0F84E
:1037F0000646884622462B460020094901F0A8F8D3
:1038000004460D463A4653463046414601F0A0F87C
:1038100004B022462B46BDE8F04D01F08DB8000003
:103820000000F03F581C00003333D33F0000E93F55
:103830000000D23F2DE9F0414F1E00EBC7010446C6
:10384000D1E9000115461E4637F006020DD02A4682
:10385000334600F03DFF7F1E04EBC703D3E900238E
:1038600000F05EFC37F00602F1D1022F25D0042FC4
:1038700013D0062F18BFBDE8F0812A46334600F06A
:1038800027FFD4E90A2300F04BFC2A46334600F018
:103890001FFFD4E9082300F043FC2A46334600F01A
:1038A00017FFD4E9062300F03BFC2A46334600F01C
:1038B0000FFFD4E9042300F033FC2A46334600F01E
:1038C00007FFD4E9022300F02BFC2A46334600F020
:1038D000FFFED4E90023BDE8F04100F021BC000068
:1038E0002DE9FF4D054621F0004084B00C46B0F1B3
:1038F000795F0BDA2846FFF747FD042808BF00F080
:1039000071F8284608B02146BDE8F08D2A460B46DE
:10391000104600F0DDFE06460F462A46234600F01C
:10392000D7FE804626488A4632463B4605217844E3
:10393000FFF780FF83461098029160B3214A224B23
:103940004046514600F0C4FECDE900015A464046CB
:103950005146029B00F0BCFE82468846DDE9060126
:103960004FF0FF3201F0A1FC5246434600F0F0FF59
:1039700032463B4600F0ACFEDDE9062300F0E8FFEE
:10398000DDE9002300F0E4FF08B02A462346BDE845
:10399000F04D00F0D1BF0B465A463046394600F094
:1039A00097FE084A084B00F0BBFB4246534600F026
:1039B0008FFE08B02A462346BDE8F04D00F0B0BBAC
:1039C0009E1B0000495555555555C5BF012201F0B4
:1039D0006CBC00F0A5BB002213461046114600F057
:1039E0005BBC0000024A0020110701F05EBC000031
:1039F00001FDFFFF014600BF704700002DE9F84FB1
:103A000004460D4621F0004000917349814211DCCB
:103A10007249884201DC06D12CB120462946BDE816
:103A2000F84FFFF7D3BF6E48002DCCBF6D496E49EC
:103A3000BDE8F88F6D49814211DD6D498142D8BFE3
:103A40004FF0FF366DDD20462946FFF79DFC042828
:103A500008BFFFF7C7FF20462946BDE8F88F654934
:103A6000654F25F00045814233DD6449814219DD0F
:103A7000002632464FF080432046294600F050FB96
:103A800080468A4601222046294601F00EFC00228B
:103A90003B4600F05DFF4246534600F0FDFB044606
:103AA0000D463EE001260022BA463B462046294606
:103AB00000F036FB80460F4600225346204629463A
:103AC00000F046FF42463B4600F0E6FB04460D464A
:103AD00027E04B4981421BDDDFF828A102260022A6
:103AE00053462046294600F0F3FD00223B4600F0F5
:103AF00017FB80460F46002253462046294600F019
:103B000027FF42463B4600F0C7FB04460D4608E04F
:103B1000032622462B4600203B4900F0BDFB04460D
:103B20000D4622462B461046194600F0D1FD8B4625
:103B3000824602460B4600F0CBFD0746024633485C
:103B400088460B4606217844FFF774FE52465B46D2
:103B500000F0BEFD82462E488B463A46434605217C
:103B60007844FFF767FE3A46434600F0B1FD02464F
:103B70000B46002E504659460CDA00F0D1FA224688
:103B80002B4600F0A5FD01B022462B46BDE8F04FC4
:103B900000F0D2BE00F0C4FA22462B4600F098FD99
:103BA0001C4A7A4402EBC603D3E9002300F0D0FE9E
:103BB00022462B4600F0CCFE174A7A4402EBC6039D
:103BC000D3E9002300F0B8FE009A002AB8BF81F0C4
:103BD0000041BDE8F88F0000000010440000F07FB5
:103BE000182D4454FB21F93FFB21F9BF0000DC3FB5
:103BF0000000203E0000F33F0000F03F0000E63FE1
:103C0000008003400000F83F0000F0BF561800009D
:103C100014180000B21700007A1700002DE9F04DCB
:103C20009446CCF1000423F000464CEA0404524FC1
:103C300046EAD4749A46884621F00042BC4206D82F
:103C4000454240EA050442EAD474BC4204D9BDE8C6
:103C5000F04D6246FFF7BDBEAAF14055A5F17F6564
:103C600055EA0C040BD0022404EAAA74434DDFF891
:103C700010E144EAD87452EA000B04D00CE0BDE82D
:103C8000F04DFFF7BBBE002C14BF012CBDE8F08D3A
:103C9000022C30D0032C32D056EA0C0B0AD0BE4294
:103CA00020D1BA4209D126F0804622F08042334624
:103CB000114617E000291ADB25E0DFF8C8B0FB4405
:103CC000002C04BFDBE90001BDE8F08D012C02BF30
:103CD000DBE9000181F00041BDE8F08D022C0AD043
:103CE000032C0CD0BA4212D1B8F1000F0BDA2348E2
:103CF0002549BDE8F08D28462449BDE8F08D2846C9
:103D00007146BDE8F08D1D482149BDE8F08D921B3C
:103D100012153C2AC4BF19481D490EDCBAF1000F28
:103D2000BEBF12F13C0F0020014606DB624600F0E8
:103D3000B3FA21F00041FFF761FE002C08BFBDE897
:103D4000F08D012C04BF81F00041BDE8F08D114AD7
:103D5000114B022C07D000F0FBFD2A46BDE8F04DC8
:103D60000A4B00F0F5BD00F0F3FD2A46BDE8F04D2A
:103D7000064B00F0E1BD00000000F07F182D445418
:103D8000FB2109C03E170000FB21F9BFFB210940C0
:103D9000FB21F93F075C143326A6A13C10B56FF058
:103DA0000400FEF711FF0A4800680A49B0FBF1F071
:103DB000094908700846007800EB4001C1EBC010CB
:103DC0004FF6FF7101EAC0000449088010BD0000F1
:103DD0000000002000127A0032020020340200208D
:103DE0000146114A12884A434FF0E0235A610022EB
:103DF0009A611A46126942F001021A6100BF4FF03F
:103E0000E022106900F001021AB100F48032002AA9
:103E1000F5D04FF0E022126922F001024FF0E023CA
:103E20001A6100229A617047340200200146114A4B
:103E300012784A434FF0E0235A6100229A611A46F1
:103E4000126942F001021A6100BF4FF0E0221069CE
:103E500000F001021AB100F48032002AF5D04FF0D0
:103E6000E022126922F001024FF0E0231A610022E1
:103E70009A617047320200204FF4165000F0CEF8DD
:103E8000FFF78CFFFDF71AFB02E0C820FFF7A8FF41
:103E900001213220FCF770FC0028F6D102E0C82096
:103EA000FFF79EFF01213220FEF708F80028F6D127
:103EB000FDF758FEFCF754FA00F004F801E0FCF7B7
:103EC0003FFEFCE770B52648264902682648FDF704
:103ED00051FE2648006800F025FE21F0004104460E
:103EE0000022234B00F0F2FC0DD200211F48006895
:103EF00000F0F8FF01D2012000E000200446782104
:103F0000FDF72CFC2AE01B48006800F00BFE21F0B6
:103F1000004104460022164B00F0D8FC0DD20021CF
:103F20001448006801F0DEF801D2012000E0002012
:103F300004467821FDF77AFB10E00F480068401C2A
:103F40000D49086008460068C82807D900210846BE
:103F5000FDF76CFB00210846FDF700FC70BD00007A
:103F60005C0100200AD7A33BCDCC4C3DA40100202E
:103F70000000F03FA00100203401002000B5254BD7
:103F800021F0004287B09A4203DC002213460092DF
:103F90002BE0214B9A4208D140B94FF00100FCF7C9
:103FA0005FF9FFF718FD07B000BD03DBFFF70EFD5B
:103FB00007B000BD02AAFFF7FBF910F003014FF0B4
:103FC00001000DD0012914D002291AD00DF1080CDE
:103FD0009CE80F00FFF7B0FB07B081F0004100BD87
:103FE0000DF1080C00909CE80F00FFF779FC07B07A
:103FF00000BD0DF1080C9CE80F00FFF79DFB07B01A
:1040000000BD0DF1080C00909CE80F00FFF768FC64
:10401000E2E70000FB21E93F0000F07F10B586B029
:104020000446012144F20400FEF77CFA4FF40070CC
:10403000ADF8140003208DF8160018208DF8170035
:1040400005A91C48FCF7DFFC4FF48060ADF81400B4
:1040500004208DF8170005A91648FCF7D4FC25208C
:104060008DF8000003208DF801008DF8020001207A
:104070008DF803006846FDF7E3FF01940020ADF8DA
:104080000800ADF80A00ADF80C00ADF810000C20E7
:10409000ADF80E0001A90848FFF7D8F8012240F258
:1040A00025510548FFF7ADF801210348FFF766F8F1
:1040B00006B010BD000801400038014021F0004268
:1040C000A2F16052B2F5801F01F0004328BFD2F187
:1040D0007F6C0BD95FEA001C43EAC20242EB5070CE
:1040E00018BF704728BF20F001007047B2F5801F4D
:1040F000BCBF184670474FEA410C1CF5001F02D2A6
:10410000084600F0EABF70B500F08CFB00000089A3
:10411000FFF7F6BF4FF00040A0F5800070470000A9
:1041200010B591EA030F48BF83F0004300F11884F3
:10413000841A71EB030C05D2121943EB0C03001B1C
:1041400061EB0C01DFF824E14FEA1154A4EB135C9E
:104150001EEA430F18BF9EEA445F73D023EA0E03A2
:10416000DCF1200E21EA045143F4801332D322FA09
:104170000CFE10EB0E0023FA0CFE41EB0E01CCF10D
:10418000200E03FA0EFE10EB0E0051F10001B1F506
:10419000801FCCF1200E32D201EB045112FA0EF244
:1041A000BDE8104058BF7047401C38BF5FEA42026C
:1041B00018BF7047002814BF20F0010041F1000132
:1041C0004FEA410313F5001F38BF7047A1F1C0410A
:1041D00000F076BB012A43EB0302ACF1200CDCF1CA
:1041E0001F0E32BF4FF0000E23FA0CF310EB03004A
:1041F00041EB0451B4EB115FD0D0A1EB045101F5B8
:10420000801149085FEA300001EB04510ED350F1F0
:10421000000038BF12FA0EFE08D1BDE81040C9E711
:10422000401C38BF5FEA4202CAD1C3E7BDE8104074
:104230004FEA410313F5001F38BF7047A1F1C04199
:1042400000F03EBB9EEA445F08D011EA5E0FBDE875
:10425000104004BF01F0004100207047BDE810404D
:1042600070B500F0DFFA00BF64FBBE3E0000E0FF67
:1042700002494FF0000000F0E6BF00BF0000F87FE9
:10428000491058BFC1F140415B1058BFC3F14043D2
:104290008B42EFF3008070472DE9C04130B4DFF866
:1042A000A0C23CEA111418BF3CEA131400F0EC80E1
:1042B00081EA03051CEA111444EAD57418BF1CEA0C
:1042C000131500F0C780A4EB05044FF0004545EA44
:1042D000C12145EAC32341EA505143EA525304F154
:1042E0007F74994204F500344FEAC0204FEAC2229D
:1042F00008BF904200F09C804FEA13650FF2401611
:10430000765D4FEA134506FB05F7C7F1807706FB9C
:1043100007F74FEAD737A7FB03687642C8F580381E
:10432000A7FB06CE38BFA8F1010807FB08E64FF04F
:10433000000EA6FB028CE6FB03CEDCF1000CCEF1F6
:10434000004E38BFAEF1010EA6FB0C584FF000072F
:104350004FF00005E6FB0E87A1FB08C6A0FB07CEC9
:1043600016EB0E0645F10005E1FB076515F1E04E81
:104370007EBFA4F580345FEA46066D4116F18007E2
:1043800045F100054FEA17274FEA066647EA056739
:10439000A6F1DE46B6F1805F4FEA15251FD93846F3
:1043A00024F0010C05EBC471BCF1FE6F01EB0C11A4
:1043B00002D8F0BCBDE8008124425CBF01F5801E3C
:1043C0009EEAC47F02D4F0BCBDE80081244238D408
:1043D000F0BCA1F1C041BDE8004100F071BA4FEA64
:1043E000D22242EA43524FEAD323A7FB02864FEA86
:1043F000D02040EA415007FB03661EEA0E0F4FEA49
:10440000D12105FB026658BFA6EB0056B6EB00565D
:104410004FEA520E4EEAC37E18EB0E0E56EB530EC9
:10442000BDD518EB02085E417F1C55F10005B6E7CB
:104430004FF480154FF000074FF000064FF00008D2
:10444000ADE7F0BC4FF0000001F1C04101F00041C8
:10445000BDE8008111EA0C1F0CEA131500D00CE036
:1044600013EA0C1F00F025804FF00000F0BC81EA39
:10447000030101F00041BDE80081F0BCBDE800414E
:1044800081EA030100F01CBAF0BCBDE8004170B540
:1044900000F0C8F9097EFC3E00F007B881EA03018C
:1044A0004FF0000001F00041704781EA030100F085
:1044B00007BAF0BCBDE800414FF000002149704749
:1044C000FFFDFBF9F7F5F4F2F0EEEDEBE9E8E6E4D9
:1044D000E3E1E0DEDDDBDAD8D7D5D4D3D1D0CFCD60
:1044E000CCCBCAC8C7C6C5C4C2C1C0BFBEBDBCBB99
:1044F000BAB9B8B7B6B5B4B3B2B1B0AFAEADACAB94
:10450000AAA9A8A8A7A6A5A4A3A3A2A1A09F9F9E6D
:104510009D9C9C9B9A99999897979695959493931F
:10452000929191908F8F8E8E8D8C8C8B8B8A8989B6
:104530008888878786858584848383828281818039
:104540000000FF070000F87F4FEA41034FEA535392
:10455000A3F58063D3F11E03C8BFD3F1210C0CDD9A
:104560004FF0004242EAC12242EA505232FA03FCC2
:104570008CEAE17CACEBE1707047102BC4BF0020EB
:10458000704703F5787CBCF1FF3F04D06FF0004228
:1045900082EA2100704770B500F044F94992248006
:1045A00000207047F2E700004FEA1153A3F5806343
:1045B000D3F11E03A8BFD3F1200C08DB4FF000425B
:1045C00042EAC12252EA505232FA03F070470942DD
:1045D0000BD4102BC4BF0020704703F5787CBCF1CE
:1045E000FF3F05D04FF0FF3070474FF0000070479D
:1045F00070B500F017F900BF499224800020704781
:10460000F0E710F0004248BF4042B0FA80F310FAE1
:1046100003F10AD0C3F11D0303F580634FEA415053
:1046200002EB035202EBD12170474FF000007047BC
:10463000B0FA80F310FA03F10AD0C3F11D0303F5B9
:1046400080634FEA41504FEA035202EBD121704799
:104650004FF000007047000051EA030C17D41CF51E
:10466000801F58BFBCF5801F00F10680994218BF1B
:10467000704708BF9042704707D711F5801F58BF99
:1046800013F5801F19D499427047894270471CF571
:10469000801F08D5BCF5801FF7D58B4218BF704727
:1046A00008BF824270474FF4001C1CEB410F38BF1B
:1046B0001CEB430F01D28B42704770B500F0B2F88B
:1046C000922449004FF000514FF08053FFF7D8BDBE
:1046D000DFF848C170B51CEA111E1EBF1CEA131595
:1046E0009EEA0C0F95EA0C0F00F06F8081EA03043C
:1046F00023EA4C134EEAD47E21EA4C1141F4801196
:1047000043F48013AE44A1FB024CA0FB0365AEF161
:104710007F7E361955EB0C05A1FB034C4CF10003D1
:10472000A0FB021C16EB0C06654153F10003094285
:1047300018BF46F0010613F4007F0BD14FEA033196
:104740004FEA0530340341EA155140EA16506FF044
:1047500003020AE04FEAC3214FEAC520F40241EA0E
:10476000555140EA56506FF0020202EB2E4201EB27
:10477000025585EACE710AD05FEA440C18BF24F0D6
:10478000004450F1000041F1000120EAD47040F2F1
:10479000FE7C624500D270BDA84214BF4FF0804439
:1047A0004FF04044002E08BF0024BEF1806FA8BF28
:1047B000A1F1C041BDE8704080F282804FF000005E
:1047C00001F1C04101F0004170479EEA0C0F0CEA74
:1047D000131518BF95EA0C0F06D04FF0000081EAC0
:1047E000030E0EF0004170BD00F01CF88900013E80
:1047F00000F007B800F009B84FEA430C5FEA5C5CD0
:1048000008D081EA030100F05BB84FEA410C5FEA8F
:104810005C5CF6D14FF00000014970470000FF07D3
:104820000000F87F0EF1020E2EF0030E5EF8046B0E
:10483000364205D4012A43EB030515F5001F12D8B3
:10484000012841EB010C1CF5001F0CD80ED14FEADA
:10485000D17C15F5001F0CEB4C0C0CF1020C08BFC1
:104860004CEBD37C04E04FF0080C01E04FEAD37C22
:104870000CEB4C0526FA05F606F00706B6F1040C1B
:1048800006D20EEB860CBDE870404CF0010C604780
:10489000DFE80CF0090B02024FF000414FF000007E
:1048A000A1F5002170BD19461046012851EB010405
:1048B00018BFD4F5001484BF002001F0004170BD82
:1048C0000808A0F500114FEA3101704753EA010CC6
:1048D00017D41CF5801F58BFBCF5801F00F106805F
:1048E0008B4218BF704708BF8242704707D713F545
:1048F000801F58BF11F5801F19D48B4270479B420F
:1049000070471CF5801F08D5BCF5801FF7D599426C
:1049100018BF704708BF904270474FF4001C1CEB53
:10492000430F38BF1CEB410F01D2994270470FB4BF
:104930000CBC03BCFFF7C1BE91EA030F10B581F0B8
:1049400000413FF5F5AB83F0004300F009B80000EB
:1049500010B591EA030F48BF83F000433FF5E8AB81
:10496000841A71EB030C07D212198CF0004C43EB44
:104970000C03001B61EB0C01DFF8A4E14FEA1154BA
:10498000A4EB135C1EEA430F18BF9EEA445F00F0DD
:10499000B08023EA6E03524221EA0451C3EB6E0356
:1049A00038BF5B1EDCF1200E25D322FA0CFE10EB83
:1049B0000E0043FA0CFE41EB0E01CCF1200E03FA7F
:1049C0000EFE10EB0E0051F10001CCF1200E29D4A7
:1049D00012FA0EF201EB0451BDE8104058BF7047C7
:1049E000401C1CBFB2F1004F704700280CBF491C8F
:1049F00020F00100704712EB020E43EB030218BFD8
:104A00004FF0010E4EEA4202ACF1200CDCF11E0E1A
:104A100054D943FA0CFE10EB0E0051F1FF31CCF1EA
:104A20001E0ED5D50EF1010E12FA0EFE404141EBDD
:104A3000010101EB445C5FEA5C5C10D910EBDE70B5
:104A400001EB045138BFBEF1004FBDE8104018BF64
:104A5000704700280CBF491C20F00100704730D27D
:104A60004FEAD42C11F5001124F400641BD0B1FAE4
:104A700081F20B3AA41AA41ED2F12003914030FA1D
:104A800003F31943904001EBCC71002C01EB04516E
:104A9000BDE81040A8BF704701F1C0414FF00000D1
:104AA00001F000417047B0FA80F310FA03F100D131
:104AB00010BDE41A173C4805C90AE4E701EB0451AC
:104AC00010BD491001EB0451BDE810404FEA300021
:104AD00002E04FF0000170474A0008BF0042F8D0E2
:104AE000B2F5001F28BF704701F000414FF00000F1
:104AF00070479EEA445F07D011EA5E0FBDE81040A0
:104B000004BF002100207047BDE8104070B5FFF7DA
:104B100089FE00BF40DFF63E83F00041104670473B
:104B20000000E0FF43004FEAD30C4FEA3C0C434047
:104B30001FBF40070CF1605113F0FE4F70471CF08F
:104B4000006F03D100200CF0004170470CF00043CF
:104B500043EA507010B540EACC0000F078FA00BF8C
:104B6000000000924FEA0001FFF7AABE4FF000419B
:104B70004FF00000A1F500217047000090EA010FFE
:104B800048BF81F0004100F1F082421A3CBF801A18
:104B900089184FEAD0524FF07F4C1CEA410FA2EB2C
:104BA000D15318BF9CEA026F00F03B804FF0004CDD
:104BB0004CEA00204CEA012121FA03FC10EB0C0C1A
:104BC0001ED202F1FF325FEA1C2040EBC25038BF18
:104BD00070471CF07F0F4FEA400C18BFBCF17F4FAD
:104BE00038BF7047C3F12003994008BF20F001008F
:104BF000BCF17F4F38BF7047A0F1C04000F06DBAE4
:104C00004FEA3C00000A40EBC25028BF1CF0FF0FE7
:104C10004FEA400CE6D018BFBCF17F4F38BF704759
:104C2000EAE79CEA026F05D010EA5C0F08BF00F0CB
:104C30000040704710B500F00AFA00BF64FBBE3EAA
:104C4000401058BFC0F14040491058BFC1F1404129
:104C50008142EFF3008070474FF47F0C1CEAD012C2
:104C60001EBF1CEAD11392EA0C0F93EA0C0F00F05E
:104C7000858090EA010F48BF42F4807240F4000C36
:104C800041F400002CF07F4120F07F4000B58142CC
:104C9000A2EB03020FF2081CACEB504EC0F1000077
:104CA0009EF800E04FEA4E0E00FB0EFC38BF4900B4
:104CB0004FEA2C1C02F5FA020CFB0EF34FEACE1E53
:104CC0004FEA112C4FEAC1210EEB635E42EB224208
:104CD0000EFB0CFC4FEA1C5300FB03114FEA112C96
:104CE0004FEA01310EFB0CFC4FEADC4C00FB0C11CF
:104CF000C14228BF09184CEB03335DF804EB10EBFD
:104D0000410143EBC250B2F57C0F38BF704729D543
:104D100012F0F00F1CBF00F1C04000F000407047DF
:104D2000008182838485868788898B8C8D8E8F9184
:104D30009293959697999A9C9D9FA0A2A3A5A7A8A8
:104D4000AAACAEB0B2B3B5B7B9BCBEC0C2C5C7C9D4
:104D5000CCCED1D4D7D9DCDFE2E6E9ECF0F3F7FA38
:104D6000FE0000004FEA400C0CF1807CBCF17E4F4D
:104D700028BF7047B0F1C04000F0AFB990EA010F12
:104D80000CEAD11348BF42F48072624538BF6345D4
:104D900007D213F47F0F16D080EA010000F0004024
:104DA000704710B500F053F9097EFC3E00F005B8DD
:104DB00080EA010000F00040704780EA010000F046
:104DC000004000F08AB912F47F0F04BF0248704718
:104DD00080EA010000F081B90000C07F50EA010CB8
:104DE00000F113801CF5000F58BFBCF5000F01D473
:104DF0008842704707D710F5000F58BF11F5000F14
:104E000015D488427047894270471CF5000F04D5BD
:104E1000BCF5000FF7D5814270474FF0807C1CEB4A
:104E2000400F38BF1CEB410F01D28142704710B5D3
:104E300000F00DF9922449004FF000504FF08051DE
:104E4000FFF7FEBE41000B0ED3F19E0208D950F4CD
:104E500000034FEA032323FA02F048BF40427047A1
:104E600010B500F0F4F800BF49922480002070478C
:104E70006FF0004282EA200070470000C10DD1F1BE
:104E80009E0206DB4FEA002343F0004323FA02F0C0
:104E90007047004207D54FEA4001B1F1FE4F02D200
:104EA0004FF00000704710B500F0D1F8499224800F
:104EB000002070476FEA200070470000B0FA80F3CE
:104EC00010FA03F2C3F19D030AD0D90501EB1220B9
:104ED000530638BF704700F1010008BF20F0010001
:104EE0007047000050EA010C00F113801CF5000F20
:104EF00058BFBCF5000F01D48842704707D710F5A2
:104F0000000F58BF11F5000F15D488427047894231
:104F100070471CF5000F04D5BCF5000FF7D5814292
:104F200070474FF0807C1CEB400F38BF1CEB410FEB
:104F300001D28142704710B500F089F892244900EF
:104F40004FF000504FF08051FFF77ABE4FF47F0CC6
:104F50001CEAD0121EBF1CEAD11392EA0C0F93EA8E
:104F60000C0F00F0478090EA010F48BF42F48072B6
:104F70004FF0004C4CEA00204CEA012102EB030206
:104F8000A0FB0113A2F50002002918BF43F00103A2
:104F90005B0028BF4FEA330342EB22425FEA132C47
:104FA0004CEBC2502EBFBCEB436FB2F57C0F704789
:104FB0004FEA036CBCF1004F08BF20F00100B2F5CE
:104FC0007C0F38BF70470BD582F0FF0212F5803F8F
:104FD000C8BF704700F1C040D8BF00F00040704724
:104FE00000F5000C5FEA4C0C48BF7047B0F1C040C0
:104FF00000F073B890EA010F0CEAD11348BF42F4F5
:105000008072624538BF634504D280EA010000F037
:105010000040704710B500F01AF800BF8900013E4B
:1050200000F007B800F009B85FEA410C5FEA1C6CB9
:1050300008D080EA010000F050B85FEA400C5FEA57
:105040001C6CF6D14FF00040A0F5800070470EF1C7
:10505000020E2EF0030E5EF8044B244204D44FEAF5
:105060004102B2F17F4F11D84FEA4003B3F17F4FB5
:105070000CD80ED14FEAD07CB2F17F4F0CEB4C0C28
:105080000CF1020C08BF4CEBD17C04E04FF0080C93
:1050900001E04FEAD17C0CEB4C0324FA03F404F05A
:1050A0000704B4F1040C06D20EEB840CBDE81040EA
:1050B0004CF0010C6047DFE80CF0070802024FF0EB
:1050C0000040A0F5800010BD0846420018BFD2F194
:1050D000807288BF00F0004010BDFF2141EAD0502F
:1050E000C005704751EA000C00F113801CF5000F59
:1050F00058BFBCF5000F01D48142704707D711F5A6
:10510000000F58BF10F5000F15D481427047894237
:1051100070471CF5000F04D5BCF5000FF7D5884289
:1051200070474FF0807C1CEB410F38BF1CEB400FE9
:1051300001D28842704780EA010081EA000180EADA
:105140000100FFF7F8BE80F0004090EA010F7FF504
:105150001CAD81F0004100F008B8000090EA010F9A
:1051600048BF81F000413FF510AD421A04D882F0EB
:105170000042A0EB020011444FEAD0524FF07F4CA6
:105180001CEA410FA2EBD15318BF9CEA026F4AD030
:105190004FF0004C4CEA00204CEA012121FA03FCBC
:1051A000B0EB0C0C0FD412F0FE0F36D05FEA4C00BF
:1051B0001DD5001240EBC25038BF70471CF03F0FA6
:1051C00018BF70470BE0A2F101025FEA1C2040EB20
:1051D000C25038BF70471CF07F0F18BF7047C3F133
:1051E0002003994014BF401E20F001007047800842
:1051F0004FEA122308BF7047B0FA80FCA2EB0C0202
:10520000CCF1280C60FA0CF093EA122F04BF00EBEB
:10521000C25070474FEAC3707047130A5FEADC1050
:1052200008BF7047F6E79CEA026F04D010EA5C0FF3
:1052300008BF0020704710B5FFF709FF40DFF63EBA
:1052400081F0004070470CF00F03092B08BF0820C5
:1052500000F059800A2B0BD0082B18BF704708BFED
:105260001CF0400F0AD04FF000004FF000017047D3
:105270001CF0400F18BF4FF0004070471CF0100F9B
:1052800008D020F0704300F07F4242EAD3014FEA99
:105290004370704700F0604021F07F4242EA000214
:1052A00001F07F4040EA727070474FF0FF0C4CF401
:1052B000E06C1CEA11531CBF9CEA030C9445C2BF6E
:1052C000DA4201EB02517047002B0DD0BCF1000F08
:1052D0000FD0002A01F00041A4BF41F0E04141F0AD
:1052E0007F614FF00000704701F000414FF0000077
:1052F000704750EA01334FF09B0C18BF4CF0806CA4
:105300007EF4B6AF70471CF4801F11D01CF4E02F60
:1053100003D06FEACC31490070474FF04050EFF3B3
:10532000008222F0704242EA000282F30088704755
:105330004FF000007047FF014FBB610567ACDD3FD8
:10534000182D4454FB21E93F9BF681D20B73EF3FAC
:10535000182D4454FB21F93FE2652F227F2B7A3C24
:10536000075C143326A6813CBDCBF07A8807703CDD
:10537000075C143326A6913CC4EB98999999C9BF50
:10538000711623FEC671BCBF6D9A74AFF2B0B3BF85
:105390009AFDDE522DDEADBF2F6C6A2C44B4A2BF45
:1053A0000D5555555555D53FFF8300922449C23FB1
:1053B0006E204CC5CD45B73F513DD0A0660DB13FE5
:1053C000EB0D76244B7BA93F11DA22E33AAD903FF7
:1053D0004C5555555555A53F7751C1166CC156BF13
:1053E0009015CB19A001FA3EAD529C804F7E92BE23
:1053F000C4B1B4BD9EEE213ED43888BEE9FAA8BD42
:10540000000000000000000000004054FB21F93FB4
:105410003163621A61B4D03D0000601A61B4D03DBE
:105420007370032E8A19A33B0000002E8A19A33B38
:10543000C14920259A837B3900000000000000004C
:105440006E83F9A22915444ED15727FCC0DD34F5EF
:10545000999562DB4190433CAB6351FE61C5BBDE75
:105460003A6E24B7E0D24D42EA2E49061C92D10989
:105470001CEB1DFE3EA729B1F53582E88444BB2E06
:1054800026709CE9417E5FB439D69139F439538353
:105490008B5F849C3B28F9BDFF97F81F0F9805DEB2
:1054A0008B112FEF1F6D0A5ACF7E366DB709CB27B0
:1054B000663F464F2DEA5F9EC7BA27757BF1E5EB45
:1054C000F739073DEA92528AB15FFB6B085D8D1F89
:1054D000A6F810111111813FD561C119A0012ABF91
:1054E0007DFEB157E31DC73EEB9C2B8AE6E55ABE15
:1054F0007CD5CF5A3AD9E53D185500080000002068
:10550000C00200006C0100085C550008C0020020C9
:10551000A8280000C80100081184A24A042009013B
:105520000203040607080963B442CB20410C5AA0C9
:105530000C11190C01AC09CED001AC63B442CB20E4
:10554000410C5AA00C11190C012A2D01020304046C
:0C55500000090006070809020406080014
:0400000508000131BD
:00000001FF
