:020000040800F2
:100000007818002045010008052500086113000844
:10001000E11B0008C50F0008BF3500080000000004
:10002000000000000000000000000000E12A0008BD
:10003000C90F000800000000C9290008E12D0008D0
:100040005F0100085F0100085F0100085F01000810
:100050005F0100085F0100085F0100085F01000800
:100060005F0100085F0100085F0100085F010008F0
:100070005F0100085F0100085F0100085F010008E0
:100080005F0100085F0100085F0100085F010008D0
:100090005F0100085F0100085F0100085F010008C0
:1000A0005F0100085F0100085F0100085F010008B0
:1000B0005F0100085F0100085F0100085F010008A0
:1000C0005F0100085F0100085F0100085F01000890
:1000D0005F010008013300085F0100085F010008AC
:1000E0005F0100085F0100085F0100085F01000870
:1000F0005F0100085F0100085F0100085F01000860
:100100005F0100085F010008452E00085F0100083C
:100110005F0100085F0100085F0100085F0100083F
:100120005F0100085F0100085F0100085F0100082F
:10013000DFF80CD000F0F2FB004800472541000832
:10014000781800200648804706480047FEE7FEE78B
:10015000FEE7FEE7FEE7FEE7FEE7FEE7FEE7FEE777
:10016000E52D000831010008F0B480EA0102D40F47
:100170004200B2EB410F02D20246084611464A0045
:1001800042D0C30DDDB2C1F3C752AD1A202D35DA0E
:10019000C1F3160141F4000204B15242C5F1200638
:1001A00002FA06F12A411044B3EBD05F23D0C4B168
:1001B000012DA0EBC35009DCF0BC4FF0004202EA75
:1001C000C352DBB200F5000000F01CBB400000F1A0
:1001D000807000EBC350A0F1807040EAD1704900FC
:1001E00009E0490841EAC071A0EBC35000F50000E6
:1001F000400800EBC350F0BC00F0FBBA61420122A2
:1002000002EB4101001BF6E7F0BC704781F00041B2
:10021000AAE780F00040A7E780EA010210B502F0EB
:100220000043400022D04A001FD0010E01EB1261B2
:10023000C0F35600C2F3560240F4000042F400023C
:10024000A0FB022000047F39140400D0401C50EAB7
:10025000124001D44000491EC2B20C0604EBD0107B
:10026000401C4008802A02D003E0002010BD20F08E
:100270000100002900DA0020184310BD30B480EAE4
:10028000010202F0004530F0004221F0004013D09E
:1002900090B1C30DD40DC2F31601C0F31600E41AD9
:1002A00041F4000140F400027D34914201D3641C0A
:1002B00000E04900002C02DA30BC002070474FF407
:1002C00000000023914201D3891A034340084FEAFA
:1002D0004101F7D151B1914202D14FF0004105E007
:1002E00002D24FF0010101E06FF0010103EBC450B5
:1002F000284430BC00F07DBA2DE9FE4F804681EAEB
:100300000300C00F0C46009021F0004123F000458F
:10031000B8EB0200A94105D24046214690461C4652
:100320000B46024623F00040104347D0270DC7F389
:100330000A00C3F30A510290401A019040286BDA78
:10034000C3F3130040F4801B0098924620B10023B1
:10035000D2EB030A63EB0B0B01985946C0F1400244
:10036000504600F015FA06460D4650465946019A89
:1003700000F02DFA10EB08006141002487EA1152C9
:1003800084EAE7731A4340D0009A62B3019A012AC3
:100390004FEA075215DC001B61EB02014FF00042EF
:1003A00002EA0752CDE90042001C41F580113246B5
:1003B0002B4600F064FA03B0BDE8F08F40462146BA
:1003C000F9E7001B61EB0201001C41F580130018E6
:1003D0005B412018A2F5001747EB030140EAD570F6
:1003E000B6196D4111E06D084FEA360645EAC07551
:1003F0004FEA0752001B61EB0201001C41F580111E
:1004000049084FEA30000019514132462B4603B0EB
:10041000BDE8F04F00F024BA00980122400000230C
:10042000D0EB020263EBE073009821464FEAE074E0
:10043000B8EB000061EB0401E9E783F000435BE700
:1004400081F0004158E72DE9FE4F81EA030404F0F2
:10045000004421F0004100944FF0000B23F00043D2
:1004600050EA01045ED052EA03045BD0C3F30A549D
:10047000C1F30A552C44A4F2F3340194A0FB0254B6
:10048000C1F3130141F48011C3F3130343F4801348
:1004900001FB024400FB034E840A970A44EA81549C
:1004A00047EA8357A4FB076802958D0A05FB078579
:1004B0004FEA932C04FB0C542705029D4FEA065883
:1004C00047EA1637B5EB08056EEB070C870E920E60
:1004D00047EA811742EA8312A7FB0201B6EB0B0140
:1004E00064EB00042B0D43EA0C335E1844EB1C5004
:1004F000DA465146E7FB0201C5F313044FEA0B331A
:1005000043EA14534FEA0432019C43EA0603A4F180
:100510000C040294009CCDE900B400F0B0F903B0E3
:10052000BDE8F08F00200146F9E72DE9F04D81EAA2
:10053000030404F0004B21F0004514464FF0000A7C
:1005400023F0004150EA050220D054EA01021DD0F8
:10055000C5F30A570246C5F31303C1F31300C1F3F1
:100560000A5640F4801543F48013A7EB0608101BCD
:10057000D64608F2FD3873EB050002D308F10108F6
:1005800001E092185B41B8F1000F03DA0020014648
:10059000BDE8F08D00204FF48011064684460EE041
:1005A000171B73EB050705D3121B63EB050306430B
:1005B0004CEA010C49084FEA300092185B4150EABE
:1005C0000107EDD152EA030012D082EA040083EA67
:1005D0000501084305D0101BAB4106D201220023C0
:1005E00006E000224FF0004302E06FF001025310DA
:1005F0001AEB06004CEB085110EB0A0041EB0B0123
:10060000BDE8F04D00F02CB90EB5C10F80EAE070E6
:100610000844CA07002140F233438DE80E000A4621
:100620000B4600F02CF903B000BD0EB540F233418B
:1006300002910021CDE900110A460B4600F01FF996
:1006400003B000BD00F0004220F00040C10DC0F337
:10065000160040F400007F2901DA00207047962937
:1006600003DCC1F19601C84001E096398840002AB8
:10067000F4D040427047C1F30A5210B5C1F31301E0
:1006800040F2FF3341F480119A4201DA002010BD9C
:1006900040F233439A42A2F2334203DC524200F06A
:1006A00086F810BD904010BD00F0004230F00040D0
:1006B0000AD0C10D01F56071C0F3160042EA015184
:1006C000C2084007114370470020014670470000F0
:1006D00030B5041E71F1000404DB4FF000444042C9
:1006E00064EB0101141E73F1000405DB1C464FF09E
:1006F0000043524263EB04038B4208BF824230BD89
:1007000030B5041E71F1000404DB4FF00044404298
:1007100064EB0101141E73F1000405DB1C464FF06D
:100720000043524263EB0403994208BF904230BD3C
:1007300001F0004330B421F0004150EA010206D03C
:100740000A0DA2F56072C1F31301002A02DC30BC6D
:1007500000207047440F44EAC104C100E01830BCD7
:1007600000EBC25000F045B8002801DBC0F10040AA
:10077000002901DBC1F1004181427047002801DB03
:10078000C0F10040002901DBC1F1004188427047FF
:10079000202A04DB203A00FA02F100207047914041
:1007A000C2F1200320FA03F3194390407047202A36
:1007B00004DB203A21FA02F00021704721FA02F30B
:1007C000D040C2F120029140084319467047202AC8
:1007D00006DBCB17203A41FA02F043EAE07306E069
:1007E00041FA02F3D040C2F1200291400843194679
:1007F00070470029A8BF7047401C490008BF20F07F
:100800000100704710B4B0FA80FC00FA0CF050EA16
:10081000010404BF10BC704749B1CCF1200421FA97
:1008200004F411FA0CF118BF012121430843A3EB92
:100830000C01CB1D4FEA00614FEA102042BF00209F
:1008400010BC704700EBC35010440029A4BF10BC7B
:100850007047401C490008BF20F0010010BC7047E1
:1008600010B5141E73F1000408DA401C41F10001B8
:1008700092185B411A4301D120F0010010BD2DE90F
:10088000F04D92469B4611B1B1FA81F202E0B0FA06
:1008900080F220329046FFF77BFF04460F4640EA85
:1008A0000A0041EA0B0153465A46084313D0114649
:1008B00053EA010019D0C8F140025046FFF777FF14
:1008C00005460E46504659464246FFF761FF08432B
:1008D00005D0012004E020463946BDE8F08D002017
:1008E000054346EAE0762C4337430A986305E40A59
:1008F000A0EB08000022FD0A44EA47540A3002D562
:1009000000200146E9E7010510196941DDE90845C4
:1009100000196941BDE8F04DA2E70000064C074D03
:1009200006E0E06840F0010394E8070098471034BF
:10093000AC42F6D3FFF700FC284700084847000800
:1009400070B521F0004303430CD0C1F30A550024D5
:10095000D5EB040564EB0403D617AD1AB34102DBF3
:100960000020014670BD201841EB025170BD70B5EA
:10097000C1F30A5201F000450024C1F3130140F213
:10098000FF3341F480119A4201DA002070BD40F239
:1009900033439A42A2F2334203DC5242FFF707FF8D
:1009A00000E090402C43F1D0404270BD70B58C18EF
:1009B00010F8015B15F0070301D110F8013B2A1173
:1009C00006D110F8012B03E010F8016B01F8016B60
:1009D0005B1EF9D12B0705D40023521E0DD401F85C
:1009E000013BFAE710F8013BCB1A921C03E013F825
:1009F000015B01F8015B521EF9D5A142D8D300205A
:100A000070BD000070B500211648006801F0B4FD0B
:100A10001549086015480068FFF746FE21F00041BF
:100A200004464FF08042124BFFF76AFE0BD2114989
:100A30000E480068FFF722FC04460F49FFF7ECFB65
:100A40000E49086006E000210D48006801F008FF2B
:100A50000A49086000210B48006801F047FE0A4976
:100A6000086070BD9C0100207C00002090000020E8
:100A7000E17AC43F0000484300803B4584000020E9
:100A800094000020A00100208000002010B518E094
:100A900001F016FC00F074F915480168154800686B
:100AA000FFF762FB134908601348016813480068A8
:100AB000FFF75AFB1149086011480068401C1049B3
:100AC00008600F480068B0F5487FE1D300200C496A
:100AD00008600C4907480068FFF7D0FB054908602B
:100AE000084906480068FFF7C9FB0449086010BDC3
:100AF0009801002088000020FC0100208C000020CC
:100B000074000020000048442DE9F74F8CB0834664
:100B1000924600F0C7F800F033F955480D99006887
:100B2000FFF77AFB0746534801683846FFF71CFB7E
:100B300005464FF07E515846FFF76BFB06462946A7
:100B4000FFF76AFB0446FFF7AFFDCDE908014A480D
:100B50000068FFF7A9FDCDE9000148480068FFF7EC
:100B6000A3FD8046DDE9002303F0AEF9CDE90401E1
:100B70005846FFF799FDCDE90201DDE90423FFF7AF
:100B800062FC064600223E4BFFF75DFC04463D4AF0
:100B90003D4BFFF7CAFCCDE90601DDE90823FFF76D
:100BA000ABFBCDE90A01FFF7C3FD324908603748C6
:100BB0000D990068FFF730FB0890354801680898E8
:100BC000FFF7D2FA07464FF07E515846FFF721FB58
:100BD00039460990FFF720FB0646FFF765FD0446FE
:100BE0000D4625480068FFF75FFDCDE90201294861
:100BF0000068FFF759FDCDE90001DDE9022303F0AC
:100C000063F906460F465846FFF74EFD32463B460F
:100C1000CDE90401FFF717FC0022194BCDE90601CD
:100C2000FFF711FC174A184BCDE90801FFF77DFCCF
:100C300022462B46CDE90A01FFF75EFB8046FFF70F
:100C400077FD13490860514613480068FFF7DEFA44
:100C500005461249FFF712FB044611480168204679
:100C6000FFF782FA0E4908600FB0BDE8F08F000070
:100C7000F401002000020020EC010020E801002027
:100C800000806640182D4454FB210940F8010020E3
:100C900004020020E4010020FC0100200000484381
:100CA000080200202DE9FC4106236A463B21692009
:100CB00000F072FB10B10120BDE8FC819DF801003D
:100CC0009DF8001040EA012000B2214908809DF8FB
:100CD00003009DF8021040EA012000B21C49488040
:100CE0009DF805009DF8041040EA012000B2184963
:100CF0008880B1F90000FFF787FC06460022154BFB
:100D0000FFF713FC0446FFF713FD13490860104971
:100D1000B1F90200FFF778FC064600220D4BFFF701
:100D200004FC0446FFF704FD0C4908600849B1F9CA
:100D30000400FFF769FC06460022064BFFF7F5FBAF
:100D40000446FFF7F5FC064908600020B4E7000000
:100D5000D40100200000D040E4010020E801002080
:100D6000EC01002010B50123044A7521692000F030
:100D700013FB08B1012010BD0020FCE7E2010020B8
:100D80002DE9FC4106236A464321692000F004FB5B
:100D900010B10120BDE8FC819DF801009DF8001014
:100DA00040EA012000B2214908809DF803009DF827
:100DB000021040EA012000B21C4948809DF805005D
:100DC0009DF8041040EA012000B218498880B1F96A
:100DD0000000FFF719FC0646154A164BFFF7A5FB66
:100DE0000446FFF7A5FC144908601049B1F9020058
:100DF000FFF70AFC06460E4A0E4BFFF796FB044629
:100E0000FFF796FC0D4908600849B1F90400FFF7A7
:100E1000FBFB0646064A074BFFF787FB0446FFF736
:100E200087FC074908600020B4E70000DC010020CF
:100E3000FCA9F1D24D623040F4010020F8010020FD
:100E4000FC010020F8B504460D46002000F08AFAA7
:100E50000A2003F01BF9FFF785FF08B10120F8BD58
:100E600029480078682801D00220F8E78020009007
:100E700001236A466B21692000F0F0FB08B10320D2
:100E8000EDE70A2003F002F90020009001236A46F2
:100E90006B21692000F0E2FB08B10420DFE70120AC
:100EA000009001236A466B21692000F0D7FB08B14E
:100EB0000A20D4E71820009001236A461B216920EC
:100EC00000F0CCFB08B10B20C9E700200090012303
:100ED0006A461C21692000F0C1FB08B10C20BEE766
:100EE0002946204600F03FF808B10D20B7E704EB93
:100EF000D471C1F34F00294600F008F808B10E2064
:100F0000ADE70020ABE70000E201002038B5044661
:100F10000D46DDB1BC2C02DD0120009018E0622CF2
:100F200002DD0220009013E02A2C02DD0320009055
:100F30000EE0142C02DD0420009009E00A2C02DDF2
:100F40000520009004E00620009001E000200090C1
:100F500001236A461A21692000F080FB08B10120B4
:100F600038BD0020FCE7F8B504460E466EB14FF4DC
:100F70007A75B4F57A7F01DD284604E0042C01DAA5
:100F8000042000E0204604460CE04FF4FA55B4F586
:100F9000FA5F01DD284604E0202C01DA202000E081
:100FA0002046044695FBF4F0401EC0B20090012399
:100FB0006A461921692000F051FB08B10120F8BDF3
:100FC0000020FCE700BFFEE770472DE9F041024634
:100FD00000250026002000230024002791F803C0EC
:100FE0000CF00F0591F803C00CF0100CBCF1000FD1
:100FF00003D091F802C04CEA050591F800C0BCF19D
:10100000000F31D0146800202BE04FF0010C0CFAD7
:1010100000F3B1F800C00CEA03069E4220D1830021
:101020004FF00F0C0CFA03F7BC4305FA03FC4CEA33
:10103000040491F803C0BCF1280F06D14FF0010C55
:101040000CFA00FCC2F814C00AE091F803C0BCF12D
:10105000480F05D14FF0010C0CFA00FCC2F810C08B
:10106000401C0828D1D31460B1F800C0BCF1FF0FB8
:1010700034DD546800202EE000F1080C4FF0010828
:1010800008FA0CF3B1F800C00CEA03069E4221D125
:1010900083004FF00F0C0CFA03F7BC4305FA03FC76
:1010A0004CEA040491F803C0BCF1280F05D100F10B
:1010B000080C08FA0CF8C2F8148091F803C0BCF1CF
:1010C000480F07D100F1080C4FF0010808FA0CF89E
:1010D000C2F81080401C0828CED35460BDE8F081CF
:1010E000F0B50A46002300240021002500F0004648
:1010F000B6F1004F02D11D4EF16901E01B4E71683F
:10110000C0F3034583B200F44016B6F5401F08D182
:1011100021F07061154E766826F07066134F7E6080
:1011200012E000F48016B6F5801F06D1032606FAF9
:1011300005F4A14341F0706106E0460D360103FA63
:1011400006F6B14341F0706122B1460D360103FA53
:1011500006F6314300F00046B6F1004F02D1034ECF
:10116000F16101E0014E7160F0BD0000000001403E
:101170000246002093680B400BB1012000E00020E4
:10118000704741617047016170470AB1016100E039
:10119000416170472DE9F0415A485B4902685B485C
:1011A00000F04CFF5A48584902685848FFF7ACFC19
:1011B00058480068FFF778FA21F000410446002201
:1011C000554BFFF785FA02D2002052490860534878
:1011D0000068FFF769FA21F00041044600224E4BF7
:1011E000FFF776FA02D200204C4908604C480168AB
:1011F0004C480068FFF70AF84B490860444801680A
:101200004A480068FFF702F8044600F04FFC4849DE
:101210000860484948480068FFF7B0FA11D34749C9
:1012200045480068FFF7A0FA0BD3454945480068D8
:10123000FFF7A4FA05D3444942480068FFF794FA3F
:1012400006D20020414908604149086041490860D0
:10125000FFF7D8FB40493E480068FFF78FFA01D2FC
:101260003D4809E03D493A480068FFF77DFA01D260
:101270003A4801E036480068354908603649354843
:101280000068FFF77BFA01D2334809E0334931485F
:101290000068FFF769FA01D2304801E02D48006884
:1012A0002C49086008460068FFF7FEF921F000416C
:1012B0000646FFF7E0F984B2002126480068FFF7F0
:1012C0005DFA01D2012000E000200546214600F031
:1012D00089FC1F480068FFF7E7F921F00041064646
:1012E000FFF7C9F984B2002119480068FFF73CFAFA
:1012F00001D2012000E000200546214600F00AFD51
:10130000BDE8F081880000200AD7A33BCDCC4C3D3E
:101310008C0000209C0100200000D03FA001002094
:1013200008020020A401002094000020FC010020FD
:101330009000002000005C420002002000005CC21F
:101340000000484204020020000048C2840000203F
:10135000800000207C00002000007A4400007AC455
:1013600000BFFEE710B504460121082001F03EFB56
:10137000C020074908801420C870032088700548E1
:10138000FFF723FEC0210348FFF7FDFE10BD00005C
:101390000C020020000C01402DE9F04105460F46EB
:1013A00090461E4600F0DCF8002141EA4501C8B233
:1013B00000F0A8F800F010F9012804D100F0EEF8D0
:1013C0000120BDE8F081384600F09CF800F004F9F7
:1013D000012803D100F0E2F80120F2E700F0C0F8A4
:1013E000012101EB4501C8B200F08CF800F0F4F8DF
:1013F000012803D100F0D2F80120E2E700240FE039
:1014000000F014F808F80400701EA04203D1012077
:1014100000F056F802E0002000F052F8601CC4B260
:10142000B442EDDB00F0BAF80020CAE770B5002442
:1014300080212148FFF7A7FE032002F04DFE802007
:101440001E4908800420C8701B48FFF7BEFD03201A
:1014500002F042FE002518E06006040E4021164806
:10146000FFF78FFE032002F037FE40211248FFF7FE
:101470008AFE032002F030FE80210F48FFF778FE3D
:1014800000F001000443681CC5B2082DE4DB4021D4
:101490000948FFF776FE032002F01EFE8020074970
:1014A00008801420C8700448FFF78FFD032002F065
:1014B00013FE204670BD0000000C01400C0200200D
:1014C00010B5044640210E48FFF75BFE032002F0F2
:1014D00003FE224680210A48FFF757FE032002F050
:1014E000FBFD40210648FFF74EFE032002F0F4FD0D
:1014F00040210348FFF745FE032002F0EDFD10BD3B
:10150000000C014070B5054600241CE04021134842
:10151000FFF737FE032002F0DFFDC4F1070045FAB4
:1015200000F000F0010280210C48FFF72EFE03209E
:1015300002F0D2FD40210948FFF725FE032002F00A
:10154000CBFD601CC4B2082CE0DB40210348FFF750
:1015500018FE032002F0C0FD70BD0000000C014029
:1015600010B580210C48FFF70EFE40210A48FFF716
:101570000AFE032002F0B0FD80210748FFF701FEBC
:10158000032002F0A9FD40210348FFF7FAFD0320E4
:1015900002F0A2FD10BD0000000C014010B540217A
:1015A0000C48FFF7EEFD80210A48FFF7EAFD032013
:1015B00002F092FD40210748FFF7E5FD032002F00D
:1015C0008BFD80210348FFF7DEFD032002F084FD40
:1015D00010BD0000000C014010B540211D48FFF770
:1015E000D0FD032002F078FD80211A48FFF7CBFDE3
:1015F000032002F071FD40211648FFF7C4FD0320CF
:1016000002F06AFD8020144908800420C870114847
:10161000FFF7DBFC032002F05FFD80210D48FFF7A0
:10162000A7FD00F00104032002F056FD80200A49C6
:1016300008801420C8700748FFF7C7FC032002F099
:101640004BFD40210348FFF79CFD032002F044FDC1
:10165000204610BD000C01400C0200202DE9F04195
:1016600005460E4617469846FFF77AFF002141EAE5
:101670004501C8B2FFF746FFFFF7AEFF012804D1CE
:10168000FFF78CFF0120BDE8F0813046FFF73AFFFD
:10169000FFF7A2FF012803D1FFF780FF0120F2E747
:1016A00000240CE0385DFFF72DFFFFF795FF0128C0
:1016B00003D1FFF773FF0120E5E7601CC4B2444586
:1016C000F0DBFFF76BFF0020DDE7000010B50446FC
:1016D0000121082001F08AF94FF440600749088091
:1016E0001420C870032088700548FFF76EFC4FF483
:1016F00040610348FFF747FD10BD000010020020C5
:10170000000C01402DE9F04105460F4690461E466B
:1017100000F0EAF8002141EA4501C8B200F0B2F851
:1017200000F026F9012804D100F000F90120BDE8FD
:10173000F081384600F0A6F800F01AF9012803D12C
:1017400000F0F4F80120F2E700F0CEF8012101EBFF
:101750004501C8B200F096F800F00AF9012803D15B
:1017600000F0E4F80120E2E700240FE000F014F8B4
:1017700008F80400701EA04203D1012000F05CF8BC
:1017800002E0002000F058F8601CC4B2B442EDDB67
:1017900000F0CCF80020CAE770B500244FF40061D7
:1017A0002348FFF7F0FC032002F096FC4FF40060A2
:1017B000204908800420C8701D48FFF706FC03205C
:1017C00002F08AFC00251BE06006040E4FF48061E5
:1017D0001748FFF7D6FC032002F07EFC4FF480612F
:1017E0001348FFF7D0FC032002F076FC4FF40061B1
:1017F0000F48FFF7BDFC00F001000443681CC5B2B0
:10180000082DE1DB4FF480610948FFF7BAFC0320A3
:1018100002F062FC4FF40060064908801420C87092
:101820000348FFF7D2FB032002F056FC204670BDB0
:10183000000C01401002002010B504464FF48061F6
:101840000F48FFF79EFC032002F046FC22464FF4AF
:1018500000610B48FFF799FC032002F03DFC4FF4B8
:1018600080610748FFF78FFC032002F035FC4FF43E
:1018700080610348FFF785FC032002F02DFC10BDBA
:10188000000C014070B5054600241FE04FF4806154
:101890001448FFF776FC032002F01EFCC4F1070099
:1018A00045FA00F000F001024FF400610D48FFF727
:1018B0006CFC032002F010FC4FF480610948FFF734
:1018C00062FC032002F008FC601CC4B2082CDDDBC3
:1018D0004FF480610348FFF754FC032002F0FCFB47
:1018E00070BD0000000C014010B54FF400610E48BF
:1018F000FFF749FC4FF480610B48FFF744FC0320DD
:1019000002F0EAFB4FF400610748FFF73AFC0320BE
:1019100002F0E2FB4FF480610348FFF732FC032042
:1019200002F0DAFB10BD0000000C014010B54FF4CE
:1019300080610E48FFF725FC4FF400610B48FFF76C
:1019400020FC032002F0C8FB4FF480610748FFF73A
:101950001AFC032002F0C0FB4FF400610348FFF7BC
:1019600012FC032002F0B8FB10BD0000000C014087
:1019700010B54FF480612148FFF703FC032002F00B
:10198000ABFB4FF400611D48FFF7FDFB032002F0A5
:10199000A3FB4FF480611948FFF7F5FB032002F029
:1019A0009BFB4FF40060164908800420C870134860
:1019B000FFF70BFB032002F08FFB4FF400610F4891
:1019C000FFF7D6FB00F00104032002F085FB4FF483
:1019D00000600B4908801420C8700848FFF7F5FA2A
:1019E000032002F079FB4FF480610448FFF7C9FB44
:1019F000032002F071FB204610BD0000000C0140E6
:101A0000100200202DE9F04105460E461746984683
:101A1000FFF76AFF002141EA4501C8B2FFF732FF34
:101A2000FFF7A6FF012804D1FFF780FF0120BDE8E2
:101A3000F0813046FFF726FFFFF79AFF012803D118
:101A4000FFF774FF0120F2E700240CE0385DFFF798
:101A500019FFFFF78DFF012803D1FFF767FF012072
:101A6000E5E7601CC4B24445F0DBFFF75FFF0020F0
:101A7000DDE7000008B50121482000F0B7FF4FF472
:101A80004050ADF8000010208DF8030003208DF8C1
:101A9000020069460448FFF798FA4FF440510248A3
:101AA000FFF771FB08BD0000000C01402DE9F0417B
:101AB000064600240025002743484449098840F889
:101AC00021604348007870BB4048048817E0621EDC
:101AD0003D4B53F822101A4652F82400FEF744FEFC
:101AE0000BD2394850F82470601E374951F8200055
:101AF00041F82400601E41F82070601E84B2002C62
:101B0000E5DC3249088800EBD07149102E4A52F8C2
:101B10002110304A11602D4800881E2846D101202E
:101B20002B49087042E0FFE7002407E0264850F800
:101B30002400294941F82400601C84B21F2CF5DBE5
:101B400000241BE0601C85B214E0234A52F82510E3
:101B500052F82400FEF712FE0AD21F4850F82470F3
:101B600050F825001C4941F82400084640F825702B
:101B7000681C85B21F2DE8DB601C84B21E2CE1DBE3
:101B800007240AE0144850F8241012480068FEF7B1
:101B9000EBFA10490860601C84B2172CF2DB0F4985
:101BA0000C480068FEF76AFB0A490860074800888D
:101BB000401C1F2190FBF1F201FB12000349088039
:101BC00004480068BDE8F081740300203E01002055
:101BD0003C01002040010020F0030020000078417B
:101BE00000BFFEE770B505460C46002C63D03248B6
:101BF0000088844215D03C2C09DA3C2090FBF4F09C
:101C0000401E2E49088001202D49088007E0002051
:101C10002A4908803C2094FBF0F029490880264896
:101C200004802848008825490988884205DA254823
:101C30000088401C234908803DE00020214908809D
:101C400000F048F8204800882049098808442049C5
:101C500049571B4A128801FB02001C49098890FB66
:101C6000F1F201FB12001849088008464088174924
:101C70000988084416494957114A128801FB020095
:101C80001249098890FBF1F201FB12000E494880CD
:101C9000084680880D49098801440D484057084A84
:101CA000128800FB02100949098890FBF1F201FB40
:101CB00012000549888070BD2A0200202C020020F5
:101CC000300200202E020020180200201402002002
:101CD0006445000810B50C4800880C4A32F8101012
:101CE0000B4801F0B8FA08484088084A32F810104A
:101CF000074801F0AEFA04488088044A32F8101010
:101D0000034801F0A4FA10BD180200207604002058
:101D10000004004070B505460C46002C63D03248E4
:101D20000088844215D03C2C09DA3C2090FBF4F06A
:101D3000401E2E49088001202D49088007E0002020
:101D40002A4908803C2094FBF0F029490880264865
:101D500004802848008825490988884205DA2548F2
:101D60000088401C234908803DE00020214908806C
:101D700000F048F820480088204909880844204994
:101D800049571B4A128801FB02001C49098890FB35
:101D9000F1F201FB120018490880084640881749F3
:101DA0000988084416494957114A128801FB020064
:101DB0001249098890FBF1F201FB12000E4948809C
:101DC000084680880D49098801440D484057084A53
:101DD000128800FB02100949098890FBF1F201FB0F
:101DE00012000549888070BD3202002034020020B4
:101DF00038020020360200201E02002014020020BB
:101E00006445000810B50D4800880D4A32F81010DE
:101E10000C4801F01AFA09484088094A32F81010B3
:101E20004FF0804001F017FA04488088044A32F8E5
:101E300010104FF0804001F00CFA10BD1E0200207F
:101E4000760400200004004010B50D4800880D4ABB
:101E500032F810100C4801F0FEF909484088094A90
:101E600032F810104FF0804001F0F1F904488088FA
:101E7000044A32F81010044801F0EBF910BD0000DC
:101E800024020020760400200008004000B589B03C
:101E900001210C2000F0AAFD0121072000F096FD91
:101EA00018208DF8230003208DF822008020ADF843
:101EB000200008A95548FFF788F80320ADF8200056
:101EC00008A95348FFF781F84C20ADF8200008A975
:101ED0004E48FFF77AF80220ADF8200008A94B48D9
:101EE000FFF773F84FF44070ADF8200008A9484898
:101EF000FFF76BF84720ADF814003120ADF818005B
:101F00000020ADF81600ADF81A008DF81C0005A9E8
:101F1000404801F0A3F905A94FF0804001F09EF977
:101F200005A93D4801F09AF96020ADF804000120B0
:101F3000ADF806000020ADF80C00ADF81000ADF8CB
:101F40000A0001A9334801F07BF80821314801F06B
:101F5000C9F801A92F4801F0D3F808212D4801F054
:101F60001FF901A92B4801F025F90821294801F0A2
:101F70005FF901A9274801F00DF80821254801F073
:101F800055F801A94FF0804001F0BAF80821C806C1
:101F900001F006F901A94FF0804001F00BF908218A
:101FA000C80601F045F901A94FF0804001F048F85A
:101FB0000821C80601F096F801A9174801F0A0F819
:101FC0000821154801F0ECF801A9134801F0F2F8D6
:101FD0000821114801F02CF901210E4800F0A4FF5E
:101FE0000121880700F0A0FF01210B4800F09CFFB1
:101FF0000121084800F0A7FF0121880700F0A3FF96
:102000000121054800F09FFF09B000BD0008014014
:10201000000C0140000400400008004010B5FFF72C
:1020200059FEFFF7EFFEFFF70FFF10BD10B500F0F0
:1020300021FEFFF72BFFFFF7F1FF10BD2DE9F74F52
:102040008CB08346924600F0CDF800F039F957483D
:102050000D990068FEF7E0F80746554801683846D4
:10206000FEF782F805464FF07E515846FEF7D1F84C
:1020700006462946FEF7D0F80446FEF715FBCDE9E3
:1020800008014C480068FEF70FFB804689464A4825
:102090000068FEF709FB42464B46CDE9000101F01E
:1020A00013FFCDE902015846FEF7FEFA0646DDE9C8
:1020B0000223FEF7C8F90022404BCDE90401FEF7E8
:1020C000C2F904463E4A3F4BFEF72FFACDE906011E
:1020D000DDE90823FEF710F9CDE90A01FEF728FB38
:1020E0003349086038480D990068FEF795F8814635
:1020F000364801684846FEF737F807464FF07E51EC
:102100005846FEF786F880463946FEF785F80646BB
:10211000FEF7CAFACDE9080126480068FEF7C4FABE
:10212000CDE900012A480068FEF7BEFA0646DDE95F
:10213000002301F0C9FE8046894626495846FEF72D
:102140006BF80646FEF7B0FA42464B46CDE902016F
:10215000FEF779F90022194BCDE90401FEF773F976
:10216000174A184BCDE90601FEF7DFF90446DDE911
:102170000823FEF7C1F8CDE90A01FEF7D9FA1349A1
:10218000086015495046FEF779F80546134801687E
:102190002846FEF73EF80446114801682046FDF740
:1021A000E3FF0F4908600FB0BDE8F08F90010020F9
:1021B0009C010020880100208401002000806640EE
:1021C000182D4454FB21094094010020A001002057
:1021D00080010020000080BF0000484398010020DB
:1021E000A40100202DE9FC4106236A463B2168201A
:1021F000FFF788FA10B10120BDE8FC819DF80100CD
:102200009DF8001040EA012000B2214908809DF8A5
:1022100003009DF8021040EA012000B21C494880EA
:102220009DF805009DF8041040EA012000B218490D
:102230008880B1F90000FEF7E7F906460022154B49
:10224000FEF773F90446FEF773FA13490860104964
:10225000B1F90200FEF7D8F9064600220D4BFEF751
:1022600064F90446FEF764FA0C4908600849B1F9BC
:102270000400FEF7C9F906460022064BFEF755F9A1
:102280000446FEF755FA064908600020B4E700004E
:10229000480100200000D04080010020840100207F
:1022A0008801002010B50123044A75216820FFF73A
:1022B00029FA08B1012010BD0020FCE77C010020B4
:1022C0002DE9FC4106236A4643216820FFF71AFAEC
:1022D00010B10120BDE8FC819DF801009DF80010BF
:1022E00040EA012000B2214908809DF803009DF8D2
:1022F000021040EA012000B21C4948809DF8050008
:102300009DF8041040EA012000B218498880B1F914
:102310000000FEF779F90646154A164BFEF705F957
:102320000446FEF705FA144908601049B1F90200A5
:10233000FEF76AF906460E4A0E4BFEF7F6F804461B
:10234000FEF7F6F90D4908600849B1F90400FEF7F7
:102350005BF90646064A074BFEF7E7F80446FEF728
:10236000E7F9074908600020B4E7000050010020A9
:10237000FCA9F1D24D623040900100209401002070
:1023800098010020F8B504460D460020FFF79EF99D
:102390000A2001F07BFEFFF785FF08B10120F8BDA0
:1023A00029480078682801D00220F8E780200090B2
:1023B00001236A466B216820FFF724FB08B1032044
:1023C000EDE70A2001F062FE0020009001236A463A
:1023D0006B216820FFF716FB08B10420DFE701201E
:1023E000009001236A466B216820FFF70BFB08B1C0
:1023F0000A20D4E71820009001236A461B21682098
:10240000FFF700FB08B10B20C9E700200090012373
:102410006A461C216820FFF7F5FA08B10C20BEE7D8
:102420002946204600F03FF808B10D20B7E704EB3D
:10243000D471C1F34F00294600F008F808B10E200E
:10244000ADE70020ABE700007C01002038B5044672
:102450000D46DDB1BC2C02DD0120009018E0622C9D
:1024600002DD0220009013E02A2C02DD0320009000
:102470000EE0142C02DD0420009009E00A2C02DD9D
:102480000520009004E00620009001E0002000906C
:1024900001236A461A216820FFF7B4FA08B1012027
:1024A00038BD0020FCE7F8B504460E466EB14FF487
:1024B0007A75B4F57A7F01DD284604E0042C01DA50
:1024C000042000E0204604460CE04FF4FA55B4F531
:1024D000FA5F01DD284604E0202C01DA202000E02C
:1024E0002046044695FBF4F0401EC0B20090012344
:1024F0006A4619216820FFF785FA08B10120F8BD66
:102500000020FCE77047000070B5002100230F2277
:10251000C47804B3154C246804F4E064C4F5E064A2
:10252000210AC1F10403CA40447804FA03F1847813
:102530001440214309010E4C0678A155047804F09B
:102540001F050124AC4005786D11AD0005F1E025B3
:10255000C5F8004109E0047804F01F050124AC40EF
:10256000044D0678761145F8264070BD0CED00E06C
:1025700000E400E080E100E02DE9FC5F83468A464C
:1025800051464A480068FEF7EFF809D04748C0F8BE
:1025900000A0002046490860464908604649086096
:1025A00051465846FDF732FE444908600846016826
:1025B00043480068FDF730FE424908603F48006824
:1025C000FEF772F821F00041044600223E4BFEF770
:1025D00097F803D800203D4908602BE03748006891
:1025E000FEF762F821F0004104460022384BFEF766
:1025F0006FF804D84FF07E50344908601AE02F4835
:102600000068FEF751F821F0004180460022304B6F
:10261000FDF772FE00222C4BCDE90001FDF785FF8E
:10262000064600222B4BFDF70BFF0446FEF780F811
:1026300026490860214801681E480068FDF794FD9E
:102640001C4908602448016820480068FDF7E4FD43
:102650000446184801682046FDF7DEFD1F49086062
:102660001548016815480068FDF7D0FD104908605D
:1026700012480068104908600D4801681848006851
:10268000FDF7CAFD17490860144801680D48006845
:10269000FDF76AFD0446134801682046FDF764FD16
:1026A0001149086008460068BDE8FC9FC40000208E
:1026B000D4000020D0000020CC000020C800002062
:1026C0009C000020DC00002000004E40E8000020BC
:1026D00000003E400000F03FA0000020E00000208D
:1026E000A4000020E4000020D80000202DE9FC5FB9
:1026F00083468A4651464A480068FEF735F809D0B5
:102700004748C0F800A000204649086046490860D4
:102710004649086051465846FDF778FD444908602F
:102720000846016843480068FDF776FD42490860A5
:102730003F480068FDF7B8FF21F000410446002241
:102740003E4BFDF7DDFF03D800203D4908602BE03C
:1027500037480068FDF7A8FF21F000410446002239
:10276000384BFDF7B5FF04D84FF07E503449086070
:102770001AE02F480068FDF797FF21F000418046DE
:102780000022304BFDF7B8FD00222C4BCDE90001B3
:10279000FDF7CBFE064600222B4BFDF751FE04460B
:1027A000FDF7C6FF26490860214801681E480068F9
:1027B000FDF7DAFC1C4908602448016820480068DD
:1027C000FDF72AFD0446184801682046FDF724FD60
:1027D0001F4908601548016815480068FDF716FD97
:1027E0001049086012480068104908600D480168E7
:1027F00018480068FDF710FD174908601448016883
:102800000D480068FDF7B0FC0446134801682046F7
:10281000FDF7AAFC1149086008460068BDE8FC9F66
:10282000EC000020FC000020F8000020F400002054
:10283000F0000020A80000200401002000004E400D
:102840001001002000003E400000F03FAC000020DE
:1028500008010020B00000200C0100200001002031
:102860002DE9FC5F83468A46514647480068FDF7DC
:102870007BFF09D04448C0F800A00020434908600D
:10288000434908604349086051465846FDF7BEFC7D
:10289000414908600846016840480068FDF7BCFCF3
:1028A0003F4908603C480068FDF7FEFE21F000410A
:1028B000044600223B4BFDF723FF03D800203A4992
:1028C00008602BE034480068FDF7EEFE21F000417F
:1028D00004460022354BFDF7FBFE04D84FF07E5036
:1028E000314908601AE02C480068FDF7DDFE21F050
:1028F0000041804600222D4BFDF7FEFC0022294BB3
:10290000CDE90001FDF711FE06460022284BFDF738
:1029100097FD0446FDF70CFF234908601E48016837
:102920001B480068FDF720FC19490860084601684B
:1029300020480068FDF770FC1F49086015480168D1
:1029400015480068FDF762FC1049086012480068ED
:10295000104908600D48016818480068FDF75CFCE4
:1029600017490860144801680D480068FDF7FCFB32
:102970000446134801682046FDF7F6FB114908603C
:1029800008460068BDE8FC9F1401002024010020D7
:10299000200100201C01002018010020B4000020AC
:1029A0002C01002000004E403801002000003E4075
:1029B0000000F03FB800002030010020BC000020E3
:1029C00034010020280100207047000029B1064A88
:1029D000D2690243044BDA6104E0034AD2698243BC
:1029E000014BDA61704700000010024029B1064A2D
:1029F00092690243044B9A6104E0034A926982435C
:102A0000014B9A61704700000010024030B5002170
:102A10000022002400232D4D6D6805F00C0121B12A
:102A2000042905D0082923D105E0294D056022E0BD
:102A3000274D05601FE0254D6D6805F47012234D8C
:102A40006D6805F48034022505EB92421CB9214DD6
:102A5000554305600BE01D4D6D6805F400351DB153
:102A60001C4D5543056002E0194D5543056002E0D9
:102A7000174D056000BF00BF144D6D6805F0F001F3
:102A80000909154D6B5C0568DD4045600F4D6D68AB
:102A900005F4E061090A104D6B5C4568DD40856016
:102AA0000A4D6D6805F46051C90A0B4D6B5C4568B1
:102AB000DD40C560054D6D6805F44041890B074D4B
:102AC0006B5CC568B5FBF3F5056130BD00100240D5
:102AD00000127A0000093D005B0300206B03002018
:102AE000704700002DE9FF4105460E4617460120BC
:102AF00023490870062023490870002404E00020C0
:102B00000DF80400601CC4B20D2CF8DBAA208DF86F
:102B100000008DF801001A4800788DF8020019486D
:102B200000788DF80300280A8DF80400E8B28DF8CB
:102B30000500300A8DF80600F0B28DF80700380A5B
:102B40008DF80800F8B28DF80900002409E09DF81E
:102B50000A001DF804100844C0B28DF80A00601C79
:102B6000C4B20A2CF3DB0D208DF80B000A208DF87F
:102B70000C000D226946044800F023FDBDE8FF81EA
:102B8000D6020020D70200200038014010B500F026
:102B900001F810BD0CB5002001900090334800688A
:102BA00040F480303149086000BF3048006800F4CC
:102BB000003000900198401C0190009818B90198CD
:102BC000B0F5A06FF1D12948006800F4003010B1D1
:102BD0000120009001E0002000900098012843D1DE
:102BE0002348006840F0100021490860084600684A
:102BF00020F0030008600846006840F0020008600A
:102C00001A484068194948600846406848600846C4
:102C1000406840F4806048600846406820F47C10BA
:102C200048600846406840F4E8104860084600687C
:102C300040F08070086000BF0C48006800F0007031
:102C40000028F9D00948406820F00300074948608F
:102C50000846406840F00200486000BF03484068F2
:102C600000F00C000828F9D10CBD00000010024053
:102C7000002002402DE9F0478EB04FF0000A4FF4DB
:102C800096604349088008460088032190FBF1F0D4
:102C900040490880002040490880084600883D4996
:102CA000098808443C4948800846408839490988D1
:102CB000084439498880002038490880084600883F
:102CC00034490988084435494880084640883149D4
:102CD0000988084431498880002031490880084625
:102CE00000882C49098808442D49488008464088B6
:102CF0002849098808442A49888000BF41E02448BF
:102D00000088FDF792FCCDE902010AF10100FDF710
:102D10007BFC06460022234BFDF795FBCDE9000125
:102D2000DDE90223FDF701FC00224FF08043CDE9ED
:102D30000401FDF788FB04461B4A1C4BFDF783FB8F
:102D4000804601F07BFA0022164BCDE90601FDF723
:102D5000D3FA0022164BCDE90801FDF774FB0022DF
:102D60004FF08043CDE90A01FDF7DFFBCDE90C010F
:102D7000FDF781FC0F4921F81A000AF101001FFA42
:102D800080FA034800888245B9DB0EB0BDE8F087C1
:102D90001402002016020020180200201E0200204B
:102DA000240200200000F03F182D4454FB2109406C
:102DB0000080484076040020042808D14FF0E0212C
:102DC000096941F004014FF0E022116107E04FF082
:102DD000E021096921F004014FF0E0221161704700
:102DE0007047000010B51348006840F00100114919
:102DF000086008464068104908400E494860084687
:102E000000680E4908400B4908600846006820F435
:102E1000802008600846406820F4FE0048604FF4B7
:102E20001F008860FFF7B2FE4FF0006004490860A1
:102E300010BD0000001002400000FFF8FFFFF6FE8A
:102E400008ED00E02DE9F04101211A4800F087F873
:102E500070B30121174800F073F817480078401C40
:102E60001549087008460078042821D10020087010
:102E7000124913480068FDF7CFF90746FDF7E2FB5A
:102E800004B20E490F480068FDF7C6F90746FDF782
:102E9000D9FB05B209490C480068FDF7BDF90746A2
:102EA000FDF7D0FB06B2224629463046FFF71AFE50
:102EB000BDE8F081000C0040D80200200000C842AC
:102EC000A40100209C010020A00100207FB5054640
:102ED0000C4601210820FFF779FDADF80850ADF848
:102EE00004400020ADF80A00ADF8060001A90D4825
:102EF00000F0B4F9012211460A4800F041F83220EE
:102F00008DF8000003208DF801008DF802000120EB
:102F10008DF803006846FFF7F7FA0121014800F039
:102F200012F87FBD000C004021B1028842F08002FF
:102F3000028004E002884FF67F731A4002807047D7
:102F4000CA430282704721B1028842F00102028026
:102F500004E002884FF6FE731A400280704730B5D5
:102F60000246002000230024158A05EA0103958902
:102F700005EA010413B10CB1012000E0002030BDCE
:102F80001AB183890B43838102E083898B43838158
:102F90007047000070B5002400220023058C4FF616
:102FA000FE7635400584028C8388048B4FF68F753E
:102FB0002C40B51E2C400D882C43751E2A400D89CF
:102FC0002A434D882A43144DA8420BD0134DA842E2
:102FD00008D0134DA84205D0124DA84202D0124D80
:102FE000A84213D14FF6F7752A404D892A434FF670
:102FF000FB752A408D882A434FF6FF652B404FF61C
:10300000FF552B408D892B43CD892B43838004832F
:10301000CD888586028470BD002C014000340140BB
:103020000040014000440140004801400A460021A0
:10303000018B4FF6F773194011430183704700006D
:1030400070B5002400220023058C4FF6EF76354042
:103050000584028C8388048B48F6FF752C404FF65C
:10306000FF452C400D884FF6FF7606EA05252C43D8
:103070004FF6DF752A400D8906EA05152A434D886B
:1030800006EA05152A43154DA84202D0144DA84260
:103090001DD14FF67F752A404D894FF6FF7606EA1F
:1030A00005152A434FF6BF752A408D8806EA051597
:1030B0002A434FF6FF352B404FF2FF752B408D8989
:1030C00006EA85052B43CD8906EA85052B438380D7
:1030D0000483CD880587028470BD0000002C014068
:1030E000003401400A460021018B4FF2FF73194062
:1030F0004FF6FF7303EA0223194301837047000070
:1031000070B5002400220023058C4FF6FF66354081
:103110000584028C8388848B4FF68F752C404FF684
:10312000FC752C400D882C434FF6FF552A400D8925
:103130004FF6FF7606EA05252A434D8806EA05255F
:103140002A43154DA84202D0144DA8421DD14FF27A
:10315000FF752A404D894FF6FF7606EA05252A437A
:103160004FF6FF352A408D8806EA05252A434EF69C
:10317000FF752B404DF6FF752B408D8906EA05152E
:103180002B43CD8906EA05152B4383808483CD88A4
:103190008587028470BD0000002C0140003401408E
:1031A0000A460021818B4FF6F77319401143818342
:1031B0007047000070B5002200230024058C4EF6F5
:1031C000FF7635400584038C8488828B48F6FF7532
:1031D0002A404FF6FF452A400D884FF6FF7606EA53
:1031E00005252A434DF6FF752B400D8906EA053566
:1031F0002B434D8806EA05352B430B4DA84202D0E0
:103200000A4DA84208D14BF6FF752C408D894FF628
:10321000FF7606EA85152C4384808283CD88A0F84A
:103220004050038470BD0000002C01400034014078
:103230000A460021818B4FF2FF7319404FF6FF734E
:1032400003EA02231943818370478186704701870F
:10325000704781877047A0F84010704700220288AD
:103260001D4B98420ED01D4B98420BD0B0F1804FB1
:1032700008D01B4B984205D01A4B984202D01A4BEB
:10328000984204D14FF68F731A404B881A43174B5C
:10329000984207D0164B984204D04FF6FF431A408D
:1032A000CB881A4302808B8883850B8803850A4B61
:1032B00098420BD0094B984208D00E4B984205D04B
:1032C0000D4B984202D00D4B984201D10B7A0386E8
:1032D0000123838270470000002C0140003401402C
:1032E0000004004000080040000C004000100040B6
:1032F00000140040004001400044014000480140EB
:103300002DE9F04F85B040F22551374800F093F891
:10331000002865D0344800F049F9C5B23348007838
:10332000062854D10020314908703148417800788E
:1033300041EA00202F4908802D48C178807841EA71
:1033400000202C4948802A484179007941EA002030
:103350002849888028480068FDF774F906B2274894
:103360000068FDF76FF907B225480068FDF76AF9B4
:103370000FFA80F820480068FDF764F90FFA80F929
:103380001E480068FDF75EF90FFA80FA1C480068D5
:10339000FDF758F90FFA80FB164BCDE900A9CDE9EE
:1033A000028704969B881AB2124B5B8819B2114BA4
:1033B0001B8818B25B4601F075F8002404E0002079
:1033C0000B490855601CC4B2062CF8DB08E008481D
:1033D00006490978455405480078401C034908709F
:1033E00005B0BDE8F08F0000003801405403002014
:1033F00055030020B20200209400002008020020A3
:10340000A401002021B1828942F40052828104E0AB
:1034100082894DF6FF731A40828170470246002070
:10342000B1F5007F00D100BF13880B400BB1012024
:1034300000E00020704770B50246002400230025FC
:10344000002040F66A16B14200D100BFC1F3421518
:1034500001F01F03012606FA03F3012D02D196891C
:10346000334006E0022D02D1168A334001E0968AED
:1034700033400C12012606FA04F41688344013B1C6
:103480000CB1012000E0002070BDF0B5034600241F
:1034900000260025002040F66A17B94200D100BF7F
:1034A0001846C1F3421401F01F06012707FA06F57A
:1034B000012C01D10C3004E0022C01D1103000E0CD
:1034C00014301AB107682F43076002E00768AF4362
:1034D0000760F0BD2DE9F04786B005460E46002492
:1034E000A24600BFA1460027B08900B100BF2F4609
:1034F0002C8A4CF6FF700440F08804432C82AC897F
:103500004EF6F3100440B0883189084371890843AE
:103510000443AC81AC8A4FF6FF400440B0890443B9
:10352000AC8201A8FFF772FA1F48874202D1DDF88A
:1035300010A001E0DDF80CA0A88900F4004040B123
:103540000AEBCA0000EB0A1031684900B0FBF1F841
:1035500007E00AEBCA0000EB0A1031688900B0FBF3
:10356000F1F86420B8FBF0F004012009642101FBAC
:103570001089A88900F4004040B1322000EBC90056
:10358000B0FBF1F000F00700044308E0322000EB4C
:1035900009106421B0FBF1F000F00F0004432C810E
:1035A00006B0BDE8F0870000003801400146888879
:1035B000C0F308007047C1F308028280704700BF63
:1035C000FEE72DE9F04107460D461646002405E0CA
:1035D000295D384600F00DF8601CC4B2B442F7DB38
:1035E00000BF40213846FFF719FF0028F9D0BDE899
:1035F000F08170B504460D4629462046FFF7DBFFF3
:1036000000BF80212046FFF709FF0028F9D070BDD8
:10361000490050EAC12018BF04204A0D18BF40F0ED
:10362000010040F2FF72B2EB515F08BF40F00200B0
:10363000012808BF052070472DE9F74F144694B0C4
:103640000021C4E902111599079121F00045C949EB
:103650008D4206DC1599C4E9000117B00020BDE8D1
:10366000F08FC549DFF814A3A9423CDD0799C44E89
:103670000029C44FC44A1599534619DDFCF7DDFEF5
:10368000554506D0C14AC24BFCF7D7FEC4E900013C
:103690000AE04FF0D352BE4BFCF7CFFE32463B461A
:1036A000FCF7CBFEC4E9000117B00120BDE8F08FA4
:1036B000FCF722FE554506D0B44AB54BFCF71CFE7C
:1036C000C4E900010AE04FF0D352B14BFCF714FEFD
:1036D00032463B46FCF710FEC4E9000117B04FF03C
:1036E000FF30BDE8F08FAB49A942159978DB21F096
:1036F000004183468846A84AA84BFCF7A4FE002256
:10370000A74BFCF7F9FDFDF732F90990FCF77CFFB8
:1037100006460F469C4A5346FCF795FE43465A46DA
:10372000FCF78EFE80468A46984A994B30463946C9
:10373000FCF789FE2A0D01250B9242465346FCF701
:103740007FFE032DC4E9000139D00B98C1F30A5163
:10375000401A05EB45111139814230DA9148C346D0
:10376000784400EB0510CDF80CA00C90D0E90023B4
:1037700030463946FCF767FE02460B460491069038
:1037800058460399FCF759FE80468A4602460B4686
:1037900058460399FCF751FE049B069AFCF74DFE30
:1037A00083460C9803913946D0E902233046FCF752
:1037B0004AFE5A46039BFCF740FE6D1CBDE7079886
:1037C0000028A2BF099817B0BDE8F08F616881F0AA
:1037D00000416160099817B04042BDE8F08FFFE7F3
:1037E00084461598C1F31301C0F30A50A0F2F530D6
:1037F0004FEA601800F01F06C6F120001390002069
:103800000690079041F4801E05206D4676B1664A09
:1038100008EB00017A4452F8213002EB8101B340F9
:103820004A68139922FA01F1194305E05F4908EB50
:103830000002794451F82210A1FB0E27A1FB0C13C2
:103840001A449A4234BF0123002303EB070A05EB15
:103850008003D3E901B70F448F4234BF0121002117
:1038600093448B4411B1934502D903E0934501D2AF
:10387000012100E00021C3E901B7514445F82010BF
:10388000011EA0F10100C1DC0298059F00F100506B
:10389000800F12900298DDE903568000FCF7B4FE19
:1038A000834628460D91FCF7C0FE6FF01D02FDF720
:1038B00047F8CDE90E013046FCF7B7FE6FF03D0248
:1038C000FDF73EF880468A463846FCF7AEFE6FF0BC
:1038D0005D02FDF735F80746424653461191FCF765
:1038E0000BFDDDE90E23FCF707FD5A460D9BFCF7A7
:1038F00003FD00250E465A4628460D9BFCF79DFD0C
:10390000DDE90E23FCF799FD42465346FCF795FD91
:103910003A46119BFCF794FDDFF898A0244A5346E1
:10392000FCF791FD07468846234A244B314628463A
:10393000FCF789FD3A464346FCF7DEFC074688461D
:103940004FF0A842534631462846FCF77CFD3A46E4
:103950004346FCF7D1FC159A12F0004F04D0129A9E
:1039600081F0004152421292C4E90001129817B04E
:10397000BDE8F08FFB21E93F7CD90240FB21F93FF4
:103980007370032E8A19A33B000040543163621AFE
:1039900061B4D03DFB21394183C8C96D305FE43F3C
:1039A0000000E03FD40E0000500E0000320E000078
:1039B000182D4454FB21F93D3326A611460B113C2A
:1039C0002DE9FF4D21F0004807460C46B8F1795F1C
:1039D00008DAFCF7CCFF002801BF0020324904B010
:1039E000BDE8F08D3A46234610461946FCF72BFDFC
:1039F000054602462D480E460B460621784400F047
:103A00005DF82A463346FCF71EFDDDE902238246B7
:103A10008B4638462146FCF716FD04460F465246B3
:103A20005B4628463146FCF70EFD22463B46FCF736
:103A300004FD07468A464FF0FF3228463146FCF720
:103A40007FFF1B4A90450ADA3A465346FCF7F5FCDD
:103A500004B00022BDE8F04D134BFCF7F1BC154A51
:103A60004245A8BFA8F500154FF00004B8BF124D9D
:103A700022462B46FCF7E1FC0646884622462B46AA
:103A800000200949FCF7D9FC04460D463A46534646
:103A900030464146FCF7D1FC04B022462B46BDE837
:103AA000F04DFCF7CDBC00000000F03F000C000022
:103AB0003333D33F0000E93F0000D23F2DE9F0410E
:103AC0004F1E00EBC7010446D1E9000115461E4612
:103AD00037F006020DD02A463346FCF7B4FC7F1EB1
:103AE00004EBC703D3E90023FCF706FC37F006021A
:103AF000F1D1022F25D0042F13D0062F18BFBDE817
:103B0000F0812A463346FCF79EFCD4E90A23FCF7F1
:103B1000F3FB2A463346FCF796FCD4E90823FCF76E
:103B2000EBFB2A463346FCF78EFCD4E90623FCF770
:103B3000E3FB2A463346FCF786FCD4E90423FCF772
:103B4000DBFB2A463346FCF77EFCD4E90223FCF774
:103B5000D3FB2A463346FCF776FCD4E90023BDE8C4
:103B6000F041FCF7C9BB00002DE9FF4D054621F0EF
:103B7000004084B00C46B0F1795F0BDA2846FFF7BD
:103B800047FD042808BF00F071F8284608B0214618
:103B9000BDE8F08D2A460B461046FCF754FC06465D
:103BA0000F462A462346FCF74EFC804626488A46A6
:103BB00032463B4605217844FFF780FF8346109844
:103BC000029160B3214A224B40465146FCF73BFC30
:103BD000CDE900015A4640465146029BFCF733FCB2
:103BE00082468846DDE906014FF0FF32FCF7A8FE69
:103BF00052464346FCF721FC32463B46FCF723FC89
:103C0000DDE90623FCF719FCDDE90023FCF715FCD0
:103C100008B02A462346BDE8F04DFCF711BC0B4620
:103C20005A4630463946FCF70EFC084A084BFCF76A
:103C300063FB42465346FCF706FC08B02A4623467F
:103C4000BDE8F04DFCF758BB460B000049555555F3
:103C50005555C5BF0122FCF773BEFCF74DBB0022D2
:103C6000134610461146FCF760BC0000024A0020D3
:103C70001107FCF765BE000001FDFFFF02E008C868
:103C8000121F08C1002AFAD170477047002001E0D6
:103C900001C1121F002AFBD17047000001490860D2
:103CA00070470000700300202DE9F84F04460D46D0
:103CB00021F0004000917349814211DC7249884231
:103CC00001DC06D12CB120462946BDE8F84FFFF7AC
:103CD000C1BF6E48002DCCBF6D496E49BDE8F88F5D
:103CE0006D49814211DD6D498142D8BF4FF0FF36E9
:103CF0006DDD20462946FFF78BFC042808BFFFF73F
:103D0000B5FF20462946BDE8F88F6549654F25F087
:103D10000045814233DD6449814219DD0026324687
:103D20004FF0804320462946FCF7E6FA80468A4653
:103D3000012220462946FCF703FE00223B46FCF701
:103D40007CFB42465346FCF7F0FB04460D463EE042
:103D500001260022BA463B4620462946FCF7CCFA0B
:103D600080460F460022534620462946FCF765FB55
:103D700042463B46FCF7D9FB04460D4627E04B493B
:103D800081421BDDDFF828A102260022534620468F
:103D90002946FCF758FB00223B46FCF7ADFA80466B
:103DA0000F460022534620462946FCF746FB424672
:103DB0003B46FCF7BAFB04460D4608E003262246C4
:103DC0002B4600203B49FCF7B0FB04460D4622463B
:103DD0002B4610461946FCF736FB8B4682460246B8
:103DE0000B46FCF730FB07460246334888460B4635
:103DF00006217844FFF762FE52465B46FCF723FB40
:103E000082462E488B463A46434605217844FFF7C2
:103E100055FE3A464346FCF716FB02460B46002E7B
:103E2000504659460CDAFCF767FA22462B46FCF757
:103E30000AFB01B022462B46BDE8F04FFCF700BB61
:103E4000FCF75AFA22462B46FCF7FDFA1C4A7A4444
:103E500002EBC603D3E90023FCF7EFFA22462B4618
:103E6000FCF7EBFA174A7A4402EBC603D3E90023C6
:103E7000FCF7E6FA009A002AB8BF81F00041BDE8DD
:103E8000F88F0000000010440000F07F182D44540B
:103E9000FB21F93FFB21F9BF0000DC3F0000203E81
:103EA0000000F33F0000F03F0000E63F00800340C9
:103EB0000000F83F0000F0BFDA070000980700009C
:103EC00036070000FE0600002DE9F04D9446CCF1C7
:103ED000000423F000464CEA0404524F46EAD4742E
:103EE0009A46884621F00042BC4206D8454240EA44
:103EF000050442EAD474BC4204D9BDE8F04D6246E0
:103F0000FFF7ABBEAAF14055A5F17F6555EA0C0459
:103F10000BD0022404EAAA74434DDFF810E144EA0E
:103F2000D87452EA000B04D00CE0BDE8F04DFFF766
:103F3000BBBE002C14BF012CBDE8F08D022C30D08C
:103F4000032C32D056EA0C0B0AD0BE4220D1BA4222
:103F500009D126F0804622F080423346114617E010
:103F600000291ADB25E0DFF8C8B0FB44002C04BFB1
:103F7000DBE90001BDE8F08D012C02BFDBE90001A7
:103F800081F00041BDE8F08D022C0AD0032C0CD04A
:103F9000BA4212D1B8F1000F0BDA23482549BDE827
:103FA000F08D28462449BDE8F08D28467146BDE8CD
:103FB000F08D1D482149BDE8F08D921B12153C2A59
:103FC000C4BF19481D490EDCBAF1000FBEBF12F183
:103FD0003C0F0020014606DB6246FCF7A6FA21F002
:103FE0000041FFF761FE002C08BFBDE8F08D012CF9
:103FF00004BF81F00041BDE8F08D114A114B022C45
:1040000007D0FCF71AFA2A46BDE8F04D0A4BFCF738
:1040100014BAFCF712FA2A46BDE8F04D064BFCF73D
:104020000FBA00000000F07F182D4454FB2109C096
:10403000C2060000FB21F9BFFB210940FB21F93F2B
:10404000075C143326A6A13C10B56FF00400FEF700
:10405000B3FE0A4800680A49B0FBF1F0094908704C
:104060000846007800EB4001C1EBC0104FF6FF712D
:1040700001EAC0000449088010BD000000000020D3
:1040800000127A00DA020020DC0200200146114A08
:1040900012884A434FF0E0235A6100229A611A467F
:1040A000126942F001021A6100BF4FF0E02210696C
:1040B00000F001021AB100F48032002AF5D04FF06E
:1040C000E022126922F001024FF0E0231A6100227F
:1040D0009A617047DC0200200146114A12784A4377
:1040E0004FF0E0235A6100229A611A46126942F0A9
:1040F00001021A6100BF4FF0E022106900F00102D6
:104100001AB100F48032002AF5D04FF0E022126993
:1041100022F001024FF0E0231A6100229A617047F9
:10412000DA0200204FF4165000F032F94FF4165026
:1041300000F0D4F8FFF788FFFDF79CFC41F61F4123
:1041400041F28730FEF7C2FE02E0C820FFF79EFF73
:1041500001213220FCF776FE0028F6D102E0C820CB
:10416000FFF794FF01213220FEF70CF90028F6D169
:10417000FDF75CFFFCF78AFC00F004F801E0FDF7B6
:1041800009F8FCE770B52648264902682648FDF77D
:1041900055FF26480068FCF787FA21F000410446E5
:1041A0000022234BFCF7ACFA0DD200211F48006817
:1041B000FCF7DAFA01D2012000E000200446782161
:1041C000FDF7A8FD2AE01B480068FCF76DFA21F016
:1041D000004104460022164BFCF792FA0DD2002152
:1041E00014480068FCF7CAFA01D2012000E0002060
:1041F00004467821FDF7F6FC10E00F480068401CEB
:104200000D49086008460068C82807D900210846FB
:10421000FDF7E8FC00210846FDF77CFD70BD0000BD
:10422000880000200AD7A33BCDCC4C3DA001002044
:104230000000F03F9C0100207000002000B5254BDD
:1042400021F0004287B09A4203DC0022134600921C
:104250002BE0214B9A4208D140B94FF00100FFF703
:104260001DFDFFF7FCFC07B000BD03DBFFF7F2FC10
:1042700007B000BD02AAFFF7DFF910F003014FF00D
:1042800001000DD0012914D002291AD00DF1080C1B
:104290009CE80F00FFF794FB07B081F0004100BDE0
:1042A0000DF1080C00909CE80F00FFF75DFC07B0D3
:1042B00000BD0DF1080C9CE80F00FFF781FB07B073
:1042C00000BD0DF1080C00909CE80F00FFF74CFCBE
:1042D000E2E70000FB21E93F0000F07F10B586B067
:1042E000044601211120FEF781FB01218804FEF71D
:1042F0006DFB01212348FCF7F3FE4FF48060ADF81D
:10430000140003208DF8160018208DF8170005A959
:104310001D48FCF75AFE4FF40060ADF8140004206D
:104320008DF8170005A91848FCF74FFE27208DF8D7
:10433000000001208DF8010003208DF8020001200B
:104340008DF803006846FEF7DFF801940020ADF811
:104350000800ADF80A00ADF80C00ADF810000C2014
:10436000ADF80E0001A90948FFF7B4F8012240F2A8
:1043700025510648FFF789F801210448FFF742F864
:1043800006B010BD100014000010014000480040AD
:1043900010B586B00446012144F20400FEF726FB66
:1043A0004FF40070ADF8140003208DF816001820AB
:1043B0008DF8170005A91D48FCF707FE4FF4806033
:1043C000ADF8140004208DF8170005A91748FCF774
:1043D000FCFD25208DF8000000208DF80100032051
:1043E0008DF8020001208DF803006846FEF78CF876
:1043F00001940020ADF80800ADF80A00ADF80C00FB
:10440000ADF810000C20ADF80E0001A90848FFF728
:1044100061F8012240F225510548FFF736F80121E5
:104420000348FEF7EFFF06B010BD00000008014092
:1044300000380140F0B589B006460F4614461C2CE2
:1044400001DD09B0F0BD002101AAE01C1154882053
:104450008DF804008DF805608DF80640002505E014
:10446000795DE81C01AA1154681CC5B2A542F7DBAE
:1044700000250AE001A9E01C085C495D0844C1B2BE
:1044800001AAE01C1154681CC5B2E01C8542F1DB96
:10449000221D01A90248FFF794F800BFD1E70000F0
:1044A000004800402DE9F04F87B004460D461646FF
:1044B0001F46DDE911ABDDF840904FF0000806E043
:1044C00000200DF8080008F1010000F0FF08B8F125
:1044D0001C0FF5DB200A8DF80000E0B28DF801001A
:1044E000280A8DF80200E8B28DF80300300A8DF832
:1044F0000400F0B28DF80500380A8DF80600F8B215
:104500008DF807004FEA19208DF8080009F0FF0028
:104510008DF809004FEA1A208DF80A000AF0FF0012
:104520008DF80B004FEA1B208DF812000BF0FF00F6
:104530008DF813001398000A8DF814001398C0B278
:104540008DF815001498000A8DF816001498C0B262
:104550008DF817001C226946AF20FFF76BFF07B0EC
:10456000BDE8F08FFF0100004FBB610567ACDD3F88
:10457000182D4454FB21E93F9BF681D20B73EF3F8A
:10458000182D4454FB21F93FE2652F227F2B7A3C02
:10459000075C143326A6813CBDCBF07A8807703CBB
:1045A000075C143326A6913CC4EB98999999C9BF2E
:1045B000711623FEC671BCBF6D9A74AFF2B0B3BF63
:1045C0009AFDDE522DDEADBF2F6C6A2C44B4A2BF23
:1045D0000D5555555555D53FFF8300922449C23F8F
:1045E0006E204CC5CD45B73F513DD0A0660DB13FC3
:1045F000EB0D76244B7BA93F11DA22E33AAD903FD5
:104600004C5555555555A53F7751C1166CC156BFF0
:104610009015CB19A001FA3EAD529C804F7E92BE00
:10462000C4B1B4BD9EEE213ED43888BEE9FAA8BD1F
:10463000000000000000000000004054FB21F93F92
:104640003163621A61B4D03D0000601A61B4D03D9C
:104650007370032E8A19A33B0000002E8A19A33B16
:10466000C14920259A837B3900000000000000002A
:104670006E83F9A22915444ED15727FCC0DD34F5CD
:10468000999562DB4190433CAB6351FE61C5BBDE53
:104690003A6E24B7E0D24D42EA2E49061C92D10967
:1046A0001CEB1DFE3EA729B1F53582E88444BB2EE4
:1046B00026709CE9417E5FB439D69139F439538331
:1046C0008B5F849C3B28F9BDFF97F81F0F9805DE90
:1046D0008B112FEF1F6D0A5ACF7E366DB709CB278E
:1046E000663F464F2DEA5F9EC7BA27757BF1E5EB23
:1046F000F739073DEA92528AB15FFB6B085D8D1F67
:10470000A6F810111111813FD561C119A0012ABF6E
:104710007DFEB157E31DC73EEB9C2B8AE6E55ABEF2
:104720007CD5CF5A3AD9E53D484700080000002023
:1047300074030000AC0900088847000874030020D7
:10474000041500008C3C00081184A24A0400091AD8
:10475000010203040607080963B442CB20410C019F
:1047600058096E7009A2BC09565801680986C0092B
:1047700050880A1101132C0203040450090607088B
:08478000090204060800000014
:0400000508000131BD
:00000001FF
